:020000040800F2
:10000000202A0020AD010008C7350008D12E0008C5
:10001000C5350008C307000825650008000000007A
:100020000000000000000000000000004939000846
:10003000A508000800000000D5350008F13C0008C4
:10004000C7010008C7010008C7010008C701000870
:10005000C7010008C7010008C7010008C701000860
:10006000C7010008C7010008C7010008C701000850
:10007000C7010008C7010008C7010008C701000840
:10008000C7010008C7010008C7010008C701000830
:10009000C7010008C7010008C7010008C701000820
:1000A000C7010008C7010008C7010008C701000810
:1000B000C7010008C7010008C7010008C701000800
:1000C000C7010008C7010008C7010008C7010008F0
:1000D000C7010008C7010008C7010008C7010008E0
:1000E000C7010008C7010008C7010008C7010008D0
:1000F000C7010008C7010008C7010008C7010008C0
:10010000C7010008C7010008C7010008C7010008AF
:10011000C7010008C7010008C7010008C70100089F
:10012000C7010008C7010008C7010008C70100088F
:10013000C7010008C7010008C7010008C70100087F
:10014000C7010008C7010008C7010008C935000839
:10015000C7010008C7010008C7010008C70100085F
:10016000C7010008C7010008C7010008C70100084F
:10017000C7010008C70100080000000000000000DF
:10018000C7010008C7010008DFF80CD000F098FA9A
:1001900000480047E58E0008202A002030BF72B6D4
:1001A000704762B6704780F30888704706488047FA
:1001B00006480047FEE7FEE7FEE7FEE7FEE7FEE74C
:1001C000FEE7FEE7FEE7FEE7693D0008890100085B
:1001D0002DE9F05F0546002092469B46884606467C
:1001E000814640241BE0284641464746224600F00F
:1001F00094F853465A46C01A914110D311461846F6
:10020000224600F07BF82D1A67EB01084F46224684
:100210000120002100F072F817EB00094E41201E6A
:10022000A4F10104DFDC484631462A46434600F08B
:1002300000B830BCBDE8C09F40EA01039B0703D073
:1002400009E008C9121F08C0042AFAD203E011F815
:10025000013B00F8013B521EF9D27047D2B201E0D7
:1002600000F8012B491EFBD270470022F6E710B5BB
:1002700013460A4604461946FFF7F0FF204610BD14
:1002800030B505462A460B4612F8010B13F8014B10
:1002900008B1A042F8D01CB1002802D06D1CF1E7D3
:1002A000284630BD421C10F8011B0029FBD1801AE2
:1002B000704730B505460020034600E05B1C9342C2
:1002C00005D2EC5CC85C201A01D1002CF6D130BDFF
:1002D00030B50B46014600202022012409E021FA16
:1002E00002F59D4205D303FA02F5491B04FA02F513
:1002F0002844151EA2F10102F1DC30BD202A04DBE6
:10030000203A00FA02F1002070479140C2F1200328
:1003100020FA03F3194390407047202A04DB203A67
:1003200021FA02F00021704721FA02F3D040C2F115
:10033000200291400843194670472DE9FE4F804640
:1003400081EA0300C00F0C46009021F0004123F029
:100350000045B8EB0200A94105D24046214690462F
:100360001C460B46024623F00040104347D0270DA1
:10037000C7F30A00C3F30A510290401A01904028C3
:100380006BDAC3F3130040F4801B0098924620B14F
:100390000023D2EB030A63EB0B0B01985946C0F123
:1003A00040025046FFF7AAFF06460D465046594602
:1003B000019A00F097F910EB08006141002487EAE8
:1003C000115284EAE7731A4340D0009A62B3019A4B
:1003D000012A4FEA075215DC001B61EB02014FF0C6
:1003E000004202EA0752CDE90042001C41F58011AB
:1003F00032462B4600F097F903B000F045B840466E
:100400002146F9E7001B61EB0201001C41F5801356
:1004100000185B412018A2F5001747EB030140EAE2
:10042000D570B6196D4111E06D084FEA360645EA00
:10043000C0754FEA0752001B61EB0201001C41F539
:10044000801149084FEA30000019514132462B46CD
:1004500003B000F01CB800F057B90098012240002A
:100460000023D0EB020263EBE073009821464FEAD1
:10047000E074B8EB000061EB0401E9E783F00043AE
:100480005BE781F0004158E730BCBDE8C08F30BC6D
:10049000BDE8C04FFFF7DFBF2DE9FE4F81EA03043F
:1004A00004F0004421F0004100944FF0000B23F0D1
:1004B000004350EA01045ED052EA03045BD0C3F368
:1004C0000A54C1F30A552C44A4F2F3340194A0FB5E
:1004D0000254C1F3130141F48011C3F3130343F435
:1004E000801301FB024400FB034E840A970A44EA8E
:1004F000815447EA8357A4FB076802958D0A05FBE0
:1005000007854FEA932C04FB0C542705029D4FEA04
:10051000065847EA1637B5EB08056EEB070C870E51
:10052000920E47EA811742EA8312A7FB0201B6EB5B
:100530000B0164EB00042B0D43EA0C335E1844EB13
:100540001C50DA465146E7FB0201C5F313044FEA9B
:100550000B3343EA14534FEA0432019C43EA060387
:10056000A4F10C040294009CCDE900B400F0DBF887
:1005700003B000F003B800200146F9E730BCBDE845
:10058000C08F2DE9F04D81EA030404F0004B21F007
:10059000004514464FF0000A23F0004150EA0502DE
:1005A00020D054EA01021DD0C5F30A570246C5F314
:1005B0001303C1F31300C1F30A5640F4801543F44A
:1005C0008013A7EB0608101BD64608F2FD3873EB24
:1005D000050002D308F1010801E092185B41B8F16F
:1005E000000F03DA00200146BDE8F08D00204FF433
:1005F0008011064684460EE0171B73EB050705D3F2
:10060000121B63EB050306434CEA010C49084FEA51
:10061000300092185B4150EA0107EDD152EA030025
:1006200012D082EA040083EA0501084305D0101BBA
:10063000AB4106D20122002306E000224FF0004326
:1006400002E06FF0010253101AEB06004CEB085168
:1006500010EB0A0041EB0B01BDE8F04D00F054B87F
:10066000C1F30A52C1F3130140F2FF3341F4801188
:100670009A4202DA00200146704740F233439A4220
:10068000A2F2334202DC5242FFF747BEFFF736BE0A
:1006900030B5041E71F1000404DB4FF00044404209
:1006A00064EB0101141E73F1000405DB1C464FF0DE
:1006B0000043524263EB0403994208BF904230BDAD
:1006C000064C074D06E0E06840F0010394E807009F
:1006D00098471034AC42F6D3FFF75AFD64990008EE
:1006E00084990008202A06DBCB17203A41FA02F051
:1006F00043EAE07306E041FA02F3D040C2F120027F
:10070000914008431946704710B5141E73F1000458
:1007100008DA401C41F1000192185B411A4301D1F3
:1007200020F0010010BD2DE9F04D92469B4611B11D
:10073000B1FA81F202E0B0FA80F220329046FFF77F
:10074000DDFD04460F4640EA0A0041EA0B0153462C
:100750005A46084313D0114653EA010019D0C8F194
:1007600040025046FFF7D9FD05460E465046594611
:100770004246FFF7C3FD084305D0012004E02046B0
:100780003946BDE8F08D0020054346EAE0762C436B
:1007900037430A986305E40AA0EB08000022FD0A2B
:1007A00044EA47540A3002D500200146E9E7010532
:1007B00010196941DDE9084500196941BDE8F04DAE
:1007C000A2E7FEE730B5002308E000BF01EB830499
:1007D000056824684FEA34442C605B1CB3EB520F6D
:1007E000F4D3D20703D0026831F8231011800068D7
:1007F000006830BD70B500230BE000BF01EB83043F
:100800002568E4782DBA25F0FF05254304682560A6
:100810005B1CB3EB920FF1D394071BD002F00304DF
:10082000012C03D1066811F823503570022C05D134
:1008300001EB83040568248864BA2C80D2439207B4
:1008400008D101EB83020368118849BA19809178B5
:10085000026811700068006870BD0021002200EB82
:100860008103C3F88423491C0F29F8D300214318BE
:1008700083F81C21491CB1F5007FF8D30270427047
:1008800001218170C0F8C423017640238371427630
:1008900080F81C2380F81D1380F81F2380F81E2386
:1008A00000207047704772B6FEE70022AFF3008069
:1008B00010B4844601200E4B5C7A002C16D1587A75
:1008C0001C54587A03EB8000C0F804C0587A03F136
:1008D000080C00F80C20587A421C5A72303008700C
:1008E0003A2048702F208870CC70002010BC7047D0
:1008F00018110020144A117F1448012901D003293E
:100900000FD1036823F400730360036843F40063AA
:100910000360036823F400630360036843F4007317
:100920000360022901D003290BD1016841F48051F1
:100930000160016821F480510160016841F4806127
:100940000160002010777047200000200020024046
:1009500030B585B00025049500F024FD01200190FC
:100960004E2003903220029004A90095684600F0C2
:1009700087FB04000BD102200190802003904000EF
:10098000029004A90095684600F07AFB044600F046
:100990008BFC14B1012005B030BD0020FBE7000046
:1009A00010B5AAB0002400F0FDFC00201690012034
:1009B0001C902090269002200C9012900421089008
:1009C000029115A800F0CEFB1FA800F0CBFB0BA8EE
:1009D00000F0C8FB01A800F0C5FB00F065FCDDE9F4
:1009E0001D212148914202D9824200D90124DDE92A
:1009F00027128A4204D91D99814201D944F0010489
:100A0000DDE917324FF000619A4205D901EBC322AC
:100A1000824201D344F00204DDE921329A4205D931
:100A200001EBC321814201D344F00204DDE90D3220
:100A30000E499A4205D901EBC322824201D344F008
:100A40000204DDE903329A4205D901EBC321814258
:100A500001D344F002040598AA2801D044F004040C
:100A60002AB0204610BD00000090010800000408D4
:100A700010B500F097FC044948F291000861BDE808
:100A8000104000F011BC0000002002402DE9F047AA
:100A9000002617468A460446354600F083FCDFF8F8
:100AA000488016E00AEBC50081460CC821460020AC
:100AB00000F022FC08B1032610E0D4E90021D9E9B6
:100AC00000305A4041400A4301D0022606E0083473
:100AD0006D1CB5EB570F01D24445E3D900F0E4FBA0
:100AE0003046BDE8F0870000F8FF07082DE9F04721
:100AF0008AB0814600F056FC044600F0EBFB40EA69
:100B0000040601250024CDE900544FF07F0A4FF080
:100B1000FF08B9F1000F2DD0CDE90284684600F03E
:100B20006DFB40EA0607CDE902840095464668461B
:100B3000019500F063FB40EA07080220CDE9005070
:100B4000B9F1000F19D0CDE90264684600F056FBF8
:100B500040EA0807AA2004900420CDE90050CDE91E
:100B60000264684600F04AFB384300D004200AB013
:100B7000BDE8F087CDE9024AD0E7CDE9024AE4E7D3
:100B80000849C20703D04A6942F004024A6180075B
:100B900003D5486940F400404861486940F480301A
:100BA0004861704700200240F0B51F4B1B684FF4AE
:100BB0008016DC051D4B1D684FF000636FEA0507CA
:100BC000BCB205D40CB12C04A60903EB560405E015
:100BD0000CB12C04A6091C4603EB5603057805F05E
:100BE0000306134D012E02D0022E0AD014E06C6AC7
:100BF000A4B203EBC4040C60A96A89B203EBC1017F
:100C000008E06B6C9BB204EBC3030B60A96C89B268
:100C100004EBC101C91D11600168AA6A02F000421B
:100C200011430160F0BD000000000140E075FF1FAE
:100C3000002002402DE9F04105464CF2503716469F
:100C40000C46384600F050F900284DD1274800687E
:100C5000274BC2054FF480111A684FF000606FEA0D
:100C600002039BB205D40BB11104890900EB5102B8
:100C700005E00BB111048909024600EB510005F0B3
:100C800003031C49012B02D0022B0FD01CE04B6A3E
:100C9000221A6FF30F0343EAD2034B628A6A301AB7
:100CA0006FF30F0242EAD0028A620DE04B6CA01A89
:100CB0006FF30F0343EAD0034B64B01A8A6C6FF3EF
:100CC0000F0242EAD0028A64886A0C4660F31E056D
:100CD0008D62486940F400304861384600F004F9FC
:100CE000616921F400316161BDE8F08100000140DB
:100CF000E075FF1F002002402DE9F0410746002467
:100D00004CF250380E462546404600F0EDF80028DB
:100D100069D1F80703D006F4E0644FF4E065B80742
:100D200004D506F48050044345F48055780704D573
:100D300006F40050044345F40055F80404D506F4C5
:100D40008040044345F48045380704D506F48030DC
:100D5000044345F48035F80604D506F40030044316
:100D600045F40035B80604D506F48020044345F464
:100D70008025780604D506F40020044345F40025B8
:100D8000380604D506F48010044345F48015F805B0
:100D900004D506F40010044345F40015B80504D545
:100DA00006F40000044345F40005780504D506F078
:100DB0008070044345F08075380504D506F0007056
:100DC000044345F00075094E306AA8432043306261
:100DD000706940F400307061404600F085F8716938
:100DE00021F400317161BDE8F08100000020024073
:100DF0002DE9F04105464CF2503614460F46304678
:100E000000F072F800282CD147EA0440164C35B1A6
:100E1000012D0AD0022D0ED0042D12D016E0E16A69
:100E200001F0FF210143E16210E0216B01F0FF219D
:100E3000014321630AE0E16C01F0FF210143E16419
:100E400004E0216D01F0FF2101432165606940F458
:100E500000306061304600F047F8616921F40031EC
:100E60006161BDE8F081000000200240CA070B4923
:100E70004A6902D022F4006201E042F400624A6151
:100E80004A6960F3CA024A61486940F00200486159
:100E9000486940F4803048617047000000200240FB
:100EA000054910B54C6944F001044C610260BFF380
:100EB0006F8F436010BD000000200240094A10B54A
:100EC0005469402344F480245461EFF3108272B6D5
:100ED00010C910C05B1E13F0FF03F9D182F3108814
:100EE00010BD00000020024070B5054600F082FBF6
:100EF0000646134C08E0681C06D000F07BFB801B04
:100F0000A84201D3032070BD2069C003F3D4206937
:100F10004CF2FA3108400CD00A494A6802434A6050
:100F2000810F01D0A169A161810000D02061012061
:100F300070BD2069C00701D001202061002070BD74
:100F40000020024020000020F0B5044600201E23AF
:100F5000012601E05B1E05D303F01F0706FA07F523
:100F60000D42F7D072B1082A0AD0102A05D0182AEB
:100F700001D1072B06D30120F0BD082BFBD201E0E5
:100F8000102BF8D22368596121688B6823F018036D
:100F900013438B60F0BD70B50446002002236377D5
:100FA00023689D6845F001059D60236A012B0ED0E2
:100FB000022B10D0032B11D104E0256851F820300A
:100FC0002B60401C9042F8D32068006806E0204661
:100FD000FFF710FC02E02046FFF7F4FB01216177E8
:100FE00070BD000010B5040010D0607F20B9002053
:100FF0002077204600F030F802206077207938B161
:10100000D4E902122046FFF79FFF48B1012010BD2E
:101010002168104848612068816821F018018160CA
:101020006079A0B1206921680861206881686269DF
:1010300021F060011143816020688168A26921F07C
:1010400080011143816001206077002010BD4FF0C6
:10105000FF30E8E7B71DC1047047000070B50446D3
:1010600000F0C8FA0546601C02D004480078044429
:1010700000F0C0FA401BA042FAD370BD140000205B
:101080002DE9F05F054633488946017801290CD0E7
:101090000126804606704CF2503B5846FFF724FF6D
:1010A00007004FF0000A03D04FE0022000F056B8CE
:1010B00051464046C8F804A0274C226892050AD53C
:1010C0002168490505D5216821F48061216003214B
:1010D00009E0067708E02268520504D5216821F46A
:1010E00080612160022101772868012807D04FF034
:1010F000FF31C9F8001040F2FA7BAE681EE0686864
:10110000FFF73EFD5846FFF7EFFE0746606948F2DD
:1011100004018843606116E030466968FFF7A6FE67
:101120004CF25030FFF7E0FE0700606920EA0B0048
:10113000606102D0C9F8006005E0761CD5E90201C3
:101140000844B042E8D8FFF7D5FB88F800A038463D
:10115000ACE70000200000200020024030BCBDE8C9
:10116000C09F000006210160234942682AB1012A7C
:1011700003D0022A01D0042A15D10723036032B11B
:10118000012A09D0022A16D0042A19D00BE0CA6A13
:10119000D2B28260CA6A03E00A6BD2B282600A6B82
:1011A000C2F30742C2600A6AD2B2AA2A0DD0CC2A80
:1011B0000BD0BB220BE0CA6CD2B28260CA6CEFE7E4
:1011C0000A6DD2B282600A6DEAE70A6AD2B202619F
:1011D000096A21F0FF018161C169012901D0022959
:1011E00009D1016800F1240241F008010160111FDA
:1011F0001C30FFF7D9BC7047002002402DE9F047B2
:10120000044627480025017801291AD001210170E0
:101210004FF000098046C0F804902078C00705D040
:10122000201D07C8FFF7E4FD00B1012520788007E5
:101230001DD54CF2503A50462769FFF755FE18B1BC
:1012400014E00220BDE8F087164E306A20F0FF005F
:1012500038433062706940F4003070615046FFF7E7
:1012600043FE716921F40031716100B101252078DC
:10127000400705D5D4E90501FFF73EFD00B1012582
:101280002078000708D5D4E90812914204D0E0691B
:10129000FFF7D0FC00B1012588F800902846D1E77F
:1012A00020000020002002400348416941F0004135
:1012B000416100207047000000200240044841695D
:1012C00041F0006141614CF25030FFF70DBE00006B
:1012D0000020024005484169490005D50449C16024
:1012E0000449C1600020704701207047002002407F
:1012F0003B2A19087F6E5D4C2DE9FF5F254C0646A1
:10130000904620789A4601280BD0012020704CF29C
:10131000503B5846FFF7E8FD07004FF0000904D0A6
:101320002AE0022004B000F039B84846C4F804901E
:10133000194D2968490504D5286820F48060286083
:101340000220207726B1012E09D0022E07D00CE012
:10135000424653460198FFF7A3FD012612E041469D
:101360000198FFF7ABFD022E0AD05846FFF7BCFDEF
:101370004FEA0007FFF7BEFA84F800903846D1E73D
:101380004FF480265846FFF7AFFD07466869B04323
:101390006861EFE7200000200020024030BCBDE87B
:1013A000C09F0000064900204A69002A07DA054A62
:1013B0008A60054A8A604969002900DA012070477D
:1013C0000020024023016745AB89EFCD2DE9F04FA6
:1013D000DFF8EC9100220127A9F1040B85B0032569
:1013E0004FF00F0C09F1040AABF1040EE0E000BF6E
:1013F00007FA02F416EA04037ED00E7906F003061B
:10140000012E01D0022E1FD186680096560005FAE3
:1014100006F80496009E26EA08060096D1F80C808D
:10142000049E08FA06F8009E48EA0608C0F80880FC
:10143000466891F80480A643C8F3001808FA02F839
:1014400048EA0608C0F80480D1F804806FEA08066C
:10145000B6070AD1C66AA643C8F3C0049440344311
:10146000C4620C79E443A4070AD0C4684FEA420876
:1014700005FA08F6B4438E6806FA08F62643C660F5
:101480000C7904F00304022C11D1D40800EB84067B
:101490000296D6F820805407E60E0CFA06F428EAE5
:1014A00004080C69B440029E44EA080434620468EB
:1014B0005600029605FA06F6B4430E7906F00308C4
:1014C000029E08FA06F848EA0408C0F800804C6852
:1014D00014F4403F6BD03B4C266E46F00106266666
:1014E000246E22F0030604F001040094364C3444C8
:1014F0000294A468960700E059E04FEA16780CFAC7
:1015000008F6B443B0F1904F04D0304EB04203D14E
:1015100001261BE0002619E02D4EB04201D1022623
:1015200014E02C4EB04201D103260FE02A4EB04207
:1015300001D104260AE0294EB04201D1052605E07A
:10154000274EB04201D1062600E0072606FA08F62B
:101550002643029CA660D9F800404E46D1F804808C
:101560009C435FEAC82800D51C433460DAF8004089
:101570005646D1F804809C435FEA882800D51C4376
:101580003460DBF800405E46D1F804809C435FEA9B
:10159000883800D51C433460DEF800407646D1F828
:1015A00004809C435FEAC83800D51C433460521C59
:1015B0000B681E46D3407FF41BAF05B000F012B895
:1015C00008040140001002400000014000040048EF
:1015D00000080048000C00480010004800140048B3
:1015E0000018004830BCBDE8C08F0AB18161704767
:1015F0008162704701488068704700001400002035
:10160000D0F8000303F073B9D0F8000303F079B900
:10161000006804F0FBBC006804F0FCBC01EB410274
:1016200002EBC10100EB810090F86000704701EB14
:10163000410202EBC10100EB8100006D704710B563
:10164000044690F8F802012809D0012084F8F80235
:10165000206804F0EAFC002084F8F80210BD0220A3
:1016600010BD2DE9FE430546DDE90B7095F8F84203
:10167000DDF828C0012C1ED001EB410404EBC104AD
:101680004FF0010905EB840485F8F892002684F8F0
:101690003D6084F83830A4F8400084F8391084F8AC
:1016A0003F7002F07F0884F83A805FEA026805D54F
:1016B00084F83B9004E0022000F00EB884F83B6010
:1016C00084F83CC0CDF800C0CDE90170286804F072
:1016D0000FFD85F8F862EFE706BCBDE8F8837047B8
:1016E0002DE9F00301EB4104DDE906C9DDE90875E8
:1016F00004EBC10400EB8404022684F83B2084F848
:101700003F30BCF1000F0AD084F8426000256BB175
:10171000012B2ED0022B12D0032B16D10FE04FF04D
:10172000030884F8428084F83D50EFE7BCF1010FD4
:101730000BD152B9D7B9012284F8552003E0AAB1E0
:1017400094F85420AAB184F84260C4F84490E76445
:1017500084F86050256584F8391084F8615004F1EC
:1017600038010068BDE8F00304F03DBD94F8552051
:10177000E8E784F84250E8E72DE9F04106680446BE
:10178000304604F04EFC012875D1206804F009FEB3
:10179000002870D0206804F004FE800203D5216880
:1017A0004FF400104861206804F0FBFDC00203D52F
:1017B00021684FF480104861206804F0F2FD400178
:1017C00003D521684FF080604861206804F0E9FD8E
:1017D000800702D5216802204861206804F0E1FDFD
:1017E000800015D521684FF000504861D6F84004BC
:1017F000C0070DD11021304604F0E8FB304604F05C
:10180000C7FB0121206804F0B1FD2046FFF7FCFE74
:10181000206804F0C6FDC00102D5204601F0C8FAD8
:10182000206804F0BEFD000705D5204600F0EDF865
:10183000216808204861206804F0B3FDC043C00659
:101840000CD42068816921F010018161204601F0EB
:10185000F9FA2068816941F010018161206804F083
:10186000A0FD800123D5206804F0B9FC07460025BF
:101870004FF0010814E01AE005F00F0108FA01F03A
:1018800038420CD006EB4510D0F80005E9B2000450
:10189000204602D501F0A3F801E001F093F96D1C98
:1018A000A068A842E8D821684FF000704861BDE800
:1018B000F08170B58AB0040005D094F8F90225686B
:1018C000002618B107E001200AB070BD84F8F86264
:1018D000204600F027F8032084F8F902E86BC005E1
:1018E00000D42661206804F031FB04F110012822A5
:1018F0000D466846FEF7A0FC94E80F0004F0F8FAE5
:101900000121206804F089FD282229466846FEF757
:1019100093FC94E80F0004F0E3FC012084F8F90242
:101920000020D1E770B5AAB0054600242494259480
:10193000269427942894882102A8FEF796FC28680C
:10194000B0F1A04F43D14FF40050029040031D90DE
:10195000012003900490182005900720069002268D
:1019600007960896F004099002A800F04FF908B114
:10197000FEF799FF1E4DE86C40F00100E864E86C4A
:1019800000F0010001904FF4C05024902596269459
:10199000032027900A20289024A94FF09040FFF7B9
:1019A00015FDE86C40F48050E864E86C00F4805069
:1019B0000190A86D10F0805F0BD000F017F90022A5
:1019C0001146432000F0ACF8432000F09BF82AB009
:1019D00070BDA86D40F08050A865A86D00F08050E3
:1019E000019000F003F9A86D20F08050A865E6E7AB
:1019F00000100240D0F8000303F015B8D0F800033F
:101A000003F015B8006804F0EFBCD0F8000302F052
:101A1000C7BF10B5044690F8F80201280DD0012088
:101A200084F8F8020121206804F096FA206804F096
:101A3000A9FA002084F8F80210BD022010BD10B5EC
:101A4000044690F8F802012809D0012084F8F80231
:101A5000206804F010FD002084F8F80210BD022078
:101A600010BD00000248816802781144816070470F
:101A70001400002010B50024032000F071F80F209E
:101A800000F008F808B1012401E000F025F8204634
:101A900010BD000070B50E4E05460024307898B198
:101AA0004FF47A71B1FBF0F00A490968B1FBF0F02C
:101AB00000F02AFE40B9102D06D200222946501E01
:101AC00000F02EF8756000E00124204670BD000093
:101AD0001400002040000020094808B5016E41F0C4
:101AE00001010166016E01F001010091816D41F07B
:101AF00080518165806D00F08050009008BD00002D
:101B000000100240002809DB00F01F020121914073
:101B10004009800000F1E020C0F80011704700008B
:101B2000F0B40E4B1B680C46C3F30223C3F1070548
:101B3000042D00D90425191D072901D2002300E036
:101B4000DB1E012606FA05F1491E214099409E4000
:101B5000761E16403143F0BC04F072BF0CED00E07D
:101B6000064900F0070208684FF6FF03184040EAF4
:101B70000220034A10430860704700000CED00E0AB
:101B80000000FA051649B0F5007F0868C0F341204F
:101B900009D0022805D0086820F4C06040F48060B5
:101BA0000860002070470128FBD0086820F4C0605E
:101BB00040F4007008600B483222006850430A4A23
:101BC000B0FBF2F0401C00E0401E4A69520501D50E
:101BD0000028F9D148694005E3D50320704700008B
:101BE000007000404000002040420F000248416861
:101BF00041F4806141607047007000400248006815
:101C000000F4C06070470000007000402DE9F84FFC
:101C1000044600270088E54D3E46010504F1200BEF
:101C20001DD5606E78B1B0F5800F11D0B0F5000F02
:101C300004D0B0F5400F22D001270FE0E86840F44F
:101C40008030E8601BE00021201D01F0C5FC03E0AE
:101C50000021584601F056FD070010D03E4620886E
:101C6000C00426D5A06EC0B1B0F1807F1AD0B0F10B
:101C7000007F0DD0B0F1407F19D0012718E0D5F8D2
:101C80008800616E20F440000843C5F88800E6E74C
:101C9000E86840F48030E86009E00021201D01F090
:101CA0009BFC03E00021584601F02CFD0746F7B1EC
:101CB0003E46206880033AD5A86D4FF00008C0006A
:101CC00009D4A86D40F08050A865A86D4FF00108B8
:101CD00000F080500090DFF8D8A2DAF8001041F44C
:101CE0008071CAF80010FFF785FC814610E0D5F836
:101CF0008800A16E20F040700843C5F88800D8E73E
:101D0000FFF778FCA0EB0900022801D9032705E0C2
:101D1000DAF80000C005F3D5002F7CD04FEA0706A3
:101D2000B8F1000F03D0A86D20F08050A86520788E
:101D3000C00707D0D5F88800A16B20F00300084346
:101D4000C5F888002078800707D5D5F88800E16BB2
:101D500020F00C000843C5F888002078400707D51C
:101D6000D5F88800216C20F030000843C5F88800C1
:101D70002078000707D5D5F88800616C20F0C000F6
:101D80000843C5F888002078C00607D5D5F8880034
:101D9000A16C20F440700843C5F8880020788006C4
:101DA00007D5D5F88800E16C20F440600843C5F8F9
:101DB00088002088800507D5D5F88800E16D20F4DB
:101DC00040200843C5F888002088400507D5D5F88D
:101DD0008800216E20F440100843C5F88800207860
:101DE000400607D5D5F88800216D20F440500843FF
:101DF000C5F888002078000607D5D5F88800616D01
:101E000020F440400843C5F888002088C00509D563
:101E1000D5F8880000E01CE0A16D20F440300843B4
:101E2000C5F8880020884FF0006780044FF0806874
:101E30004FD5D5F88800E16E20F040600843C5F822
:101E40008800E06EB8423CD1E86840F48010E86059
:101E50003FE0D5F8900010F4407015D0D4F884100D
:101E6000814211D0D5F89000D5F8901020F4407040
:101E700041F48031C5F89010D5F8901021F48031EC
:101E8000C5F89010C5F89000C00710D0FFF7B2FB5E
:101E9000074641F2883906E0FFF7ACFBC11B494514
:101EA00001D903263CE7D5F890008007F4D5D5F892
:101EB0009000D4F8841020F440700843C5F89000D6
:101EC0002EE7404505D10121201D01F085FB00B121
:101ED00006462068000317D5D5F88800216F20F04A
:101EE00040600843C5F88800206FB84204D1E86814
:101EF00040F48010E86007E0404505D10121201D35
:101F000001F06AFB00B106462068400317D5D5F8FA
:101F10008800616F20F040600843C5F88800606F5A
:101F2000B84204D1E86840F48010E86007E040451A
:101F300005D10121201D01F04FFB00B1064620888C
:101F400040041AD5D5F88800A16F20F0405008430E
:101F5000C5F88800A06FB0F1805F03D0B0F1005FDA
:101F600005D00AE00221201D01F036FB03E002212A
:101F7000584601F0C7FB00B106462088000407D58B
:101F8000D5F88800E16F20F080400843C5F888004C
:101F90002068C00307D555F8880FD4F8801020F0CA
:101FA000004008432860304600F004B800100240AA
:101FB0000070004018BCBDE8E08F00002DE9F0473C
:101FC0000F46050058D0404E306800F00700B84278
:101FD00009D2306820F0070038433060306800F0E4
:101FE0000700B84248D12878384CC0072CD0686820
:101FF000032811D0022812D0216898B14905002980
:102000003ADAA16821F003010143A160FFF7F2FA77
:10201000804641F2883910E021688901EFE72168A4
:102020008903ECE78907EAE7FFF7E4FAA0EB080188
:10203000494502D90320BDE8F087A068696800F02F
:102040000C00B0EB810FEFD12878800705D5A06890
:10205000A96820F0F0000843A060306800F0070095
:10206000B8420BD9306820F0070038433060306840
:1020700000F00700B84201D00120DCE728784007D3
:1020800005D5A068E96820F4E0600843A0602878DE
:10209000000706D5A068296920F4605040EAC10015
:1020A000A06000F03FF8A168094AC1F30311515C38
:1020B00001F01F01C8400749086007480068BDE8F3
:1020C000F047FFF7E7BC000000200240001002408C
:1020D00088940008400000201800002005480649A8
:1020E00000688968054AC1F30221515C01F01F01B3
:1020F000C84070474000002000100240C89400080B
:102100000548064900688968054AC1F3C221515C47
:1021100001F01F01C840704740000020001002403D
:10212000C894000870B52549002318468A68CC6811
:1021300012F00C0204F00306214C4FEA640509D0AA
:102140000C2A05D0042A32D0082A00D1284670BDB6
:10215000012E10D10B681B0704D4D1F89430C3F3BF
:10216000032302E00B68C3F30313164E56F8233023
:10217000DAB10C2AEBD1C86800F00300022818D0AD
:10218000032818D01846CA68CB68C2F30212C3F3FA
:1021900006234343521CB3FBF2F2C868C0F341600C
:1021A000401C4000B2FBF0F070BD184670BD2046E8
:1021B00070BD2046E7E72846E5E700000010024032
:1021C0000024F400989400082DE9F84304006FD02F
:1021D000FE4DA86800F00C06E86800F003072078C0
:1021E000C00664D576B10C2E01D1012F0AD0A069AA
:1021F000002828687AD040F001002860FFF7FAF93B
:1022000080465DE02868800702D5A0690028DED0FE
:10221000216A2868000703D5286800F0F00004E070
:10222000D5F89400F02202EA1010814216D908462F
:1022300001F0ECFA00283BD1286840F00800286043
:102240002868216A20F0F000084328606868E16986
:1022500020F47F4040EA0120686016E0286840F0E2
:10226000080028602868216A20F0F00008432860F0
:102270006868E16920F47F4040EA0120686026B97F
:10228000206A01F0C3FA0028D5D1FFF74BFFA968F7
:10229000CF4AC1F30311515C01F01F01C840CD4981
:1022A0000860CD480068FFF7F5FB00287ED12EE0DE
:1022B000CAE000BFFFF79EF9A0EB0800022876D81D
:1022C00028688007F6D5286840F00800286028684C
:1022D000216A20F0F000084328606868E16920F472
:1022E0007F4040EA0120686011E0FFE720F0010034
:1022F0002860FFF77FF9804606E000BFFFF77AF914
:10230000A0EB08000228DAD828688007F6D42078E5
:10231000C00740D0082E18D00C2E01D1032F14D0A6
:102320006068B0F5803F17D0B0F5A02F286817D0AF
:1023300020F480302860286820F4802028606068BD
:10234000E0B1FFF757F9804614E02868800322D5F2
:102350006068002878D01EE0286840F48030EDE7FF
:1023600040F480202860F7E7FFF744F9A0EB08006D
:102370006428A4D828688003F6D50CE0FFF73AF962
:10238000804605E0FFF736F9A0EB0800642896D8F0
:1023900028688003F6D4207880073BD5042E11D01E
:1023A0000C2E01D1022F0DD0E06801E092E1F1E0A6
:1023B000002828681ED040F480702860FFF71AF9C2
:1023C00007460CE0286840050CD5E0680028C1D01D
:1023D00008E000BFFFF70EF9C01B022893D8286859
:1023E0004005F7D56868217C20F0F85040EA01608C
:1023F00068600FE020F480702860FFF7FBF8074664
:1024000005E000BFFFF7F6F8C01B0228B1D8286826
:102410004005F7D42078000729D560690028D5F851
:10242000940012D040F00100C5F89400FFF7E2F8E4
:10243000074604E0FFF7DEF8C01B022899D8D5F85C
:1024400094008007F6D512E000E120F00100C5F805
:102450009400FFF7CFF8074605E000BFFFF7CAF882
:10246000C01B022885D8D5F894008007F6D42078C0
:10247000400766D5A86D0027C00008D4A86D40F0BD
:102480008050A865A86D012700F080500090534847
:102490000168C90512D40168814641F48071016068
:1024A000FFF7A8F8804605E0FFF7A4F8A0EB0800C6
:1024B00002286FD8D9F80000C005F5D5A06801281A
:1024C00016D00528D5F8900017D020F00100C5F8E7
:1024D0009000D5F8900020F0040000BFC5F89000EF
:1024E000A06841F28839C0B1FFF784F880460FE058
:1024F000D5F8900040F00100F0E740F00400C5F886
:102500009000F5E7FFF776F8A0EB0801494541D8C0
:10251000D5F890008007F5D50EE0FFF76BF8804600
:1025200006E000BFFFF766F8A0EB0801494531D887
:10253000D5F890008007F5D41FB1A86D20F0805029
:10254000A865A06A38B302280AD00C2E7ED028686D
:1025500020F080702860286810F0205F77D0AAE013
:10256000E868E26A00F0030191422BD1216B00F090
:10257000700209011039914224D1626B00F4FE41CE
:10258000B1EB022F1ED1A26B00F40031072A03D059
:10259000012202E09DE089E00022914212D1A18F48
:1025A00000F4C00249084905A1F50011914209D182
:1025B00094F8401000F0C06049084906A1F100718C
:1025C00081425CD00C2E41D0286809E00010024006
:1025D000889400084000002018000020007000408F
:1025E00040017ED42868C0007BD4286820F0807029
:1025F0002860FEF7FFFF064605E000BFFEF7FAFF82
:10260000801B022865D828688001F7D4D4E90B0123
:102610006FF00F0202EB01110843A18F5204490829
:1026200002EB4151626B41EA0221084394F84010E9
:102630004FF07E42490802EB41610843A16B090952
:1026400040EA4140E968284A114001E049E02EE0B3
:102650000843E860286840F080702860E86840F02F
:102660008070E860FEF7C6FF044604E0FEF7C2FF94
:10267000001B02282DD828688001F7D52FE0286894
:1026800080012CD4286840F080702860E86840F011
:102690008070E860FEF7AEFF044604E0FEF7AAFF94
:1026A000001B022815D828688001F7D517E0E868D4
:1026B00020F00300E860E8680C490840E860FEF795
:1026C00099FF044608E000BFFEF794FF001B0228B4
:1026D00002D90320BDE8F88328688001F4D40020E3
:1026E000F8E70120F6E700008C809DF9FFFFEEFE81
:1026F0004FF0E0210428086903D020F004000861AD
:10270000704740F00400FAE710B5401EB0F1807F3A
:1027100001D3012010BD4FF0E02460610F2160174C
:1027200004F08EF90020A06107202061002010BD78
:1027300010B5040002D0A06F10B107E0012010BD59
:10274000002084F87400204600F026F82420A067BA
:102750002068016821F001010160204601F09EFB24
:102760000128ECD0606A10B1204601F005FB20681A
:10277000416821F4904141602068816821F02A017C
:1027800081602068016841F0010101602046BDE8D8
:10279000104001F055BB000010B5A8B0044614214C
:1027A00022A8FDF762FD88216846FDF75EFD1C4901
:1027B0002068884231D10120002400900E946846A0
:1027C000FFF724FA08B1FEF76EF81648016E41F4DF
:1027D00080410166016E01F480412791C16C41F096
:1027E0000101C164C06C22A900F0010027904FF4E0
:1027F000C06022900220CDE9230403202590072009
:1028000026904FF09040FEF7E1FD0322114625206F
:10281000FFF786F92520FFF775F928B010BD0000F5
:1028200000380140001002402DE9F84F0446C06F07
:102830009A4616460D46202870D10DB306B394F87B
:10284000740001286AD0012084F874004FF0000859
:10285000C4F880802221E167C4F860805834FEF714
:10286000C9FE24F8026B814624F852694FF4805364
:1028700054F80809FF21984208D122691AB11CE0D6
:10288000012000F04DB840F2FF1116E07F2290B118
:10289000B0F1805F14D0A4F85C8000BFB4F85C7025
:1028A000984201D1206990B12E46002584F87480A9
:1028B00007F0FF0825E0266936B9A4F85C10EDE7BB
:1028C000216909B13F21F8E7A4F85C20E6E700267A
:1028D000ECE74B46002220212046CDF800A001F075
:1028E00001FC08B10320CCE72068808C8EB100EA9F
:1028F000080006F8010B00BFB4F85A00401EA4F807
:102900005A00B4F85A000028E3D12020E0670020E4
:10291000B7E7384025F8020BEEE7FFE70220B0E703
:1029200018BCBDE8E08F00002DE9F8430446806F35
:102930001F4616460D4620284FD1CDB1C6B194F89A
:102940007400012849D0012084F874004FF0000879
:10295000C4F880802120A067FEF74CFEA4F85060E8
:102960008146A4F85260A068B0F5805F03D004E00F
:102970000120BDE8F883206928B12E465FF00005EC
:1029800084F8748010E00026FAE78021204601F0E8
:10299000A9FBB8B9C6B116F8010B21680885B4F8CF
:1029A0005200401EA4F85200B4F852004B464FF0BB
:1029B000000200970028E8D14FF04001204601F0C6
:1029C00091FB30B10320D4E735F8020BC0F30800C7
:1029D000E3E72020A0670020CBE70220C9E72DE92C
:1029E000F047074600680C4600EB4116D6F808058C
:1029F00001EB4103420703EBC4014FF006004FF027
:102A000004084FF0050A07EB810501D541463CE07B
:102A1000D6F80815C90507D54FF48070C6F8080523
:102A2000072085F861001CE0D6F80815890603D553
:102A30002020C6F8080518E0D6F808150A074FF058
:102A4000080104D5C6F8081585F861A009E0D6F894
:102A50000825520514D54FF48060C6F8080585F89E
:102A600061102146386803F0E0FAD6F808058005C1
:102A70000ED52146386803F0D8FA4FF400709EE076
:102A8000D6F808150906F0D58021C6F80815C8E75C
:102A9000D6F808054FF00001C0074FF010094FF0BD
:102AA00001023BD085F86120E965C6F8082595F854
:102AB0003F0030B1022804D0032809D0012810D0EB
:102AC0001BE02146386803F0B0FAC6F8089514E018
:102AD000D6F8000540F00050C6F8000585F86020E3
:102AE00007E085F8602095F8540080F0010085F833
:102AF000540021463846FEF7F2FD3869012806D118
:102B0000B5F84010A86CB0FBF1F0C00704D015F880
:102B1000540F80F001002870BDE8F087D6F8080552
:102B2000800735D595F86100022301280AD00528D1
:102B30000BD006280CD008280AD003280FD007286D
:102B400018D01CE085F8602019E085F860A016E038
:102B5000E86D401CE865022801D9E9650DE085F8BB
:102B60006030D6F8000520F0804040F00040C6F804
:102B7000000504E0E86D401CE86585F86080C6F853
:102B8000083595F8602021463846FEF7A8FDC3E7D2
:102B9000D6F80805C006BFD595F83F00032803D036
:102BA00020B1022802D009E0E96503E00320E965CD
:102BB00085F861002146386803F037FA4846C6F8C0
:102BC0000805A9E72DE9F047026802EB4114D4F8A3
:102BD00008254FF00407530701EB410202EBC10245
:102BE0004FF0060A00EB820204D5C4F8087582F89B
:102BF00061A051E0D4F808354FF000069B064FF075
:102C0000020C0BD52023C4F8083592F83D30012B77
:102C100033D182F83D6082F860C03DE0D4F80835D9
:102C20009B0504D54FF40072C4F8082534E0D4F8AD
:102C300008354FF040055FEAC3784FF001030DD02F
:102C4000D665D4F80865760603D582F83D30C4F819
:102C50000855C4F8083582F861301DE0D4F80885BD
:102C60005FEA48680BD582F8617082F83D30D6651E
:102C7000006803F0DAF9C4F80855BDE8F087D4F825
:102C800008554FF008095FEA05784FF0050508D5AB
:102C9000C4F8089582F861500068BDE8F04703F079
:102CA000C4B9D4F808855FEAC86808D50323D66597
:102CB00082F86130006803F0B8F910200AE0D4F817
:102CC00008855FEA086808D582F861A0006803F00B
:102CD000ACF98020C4F80805CFE7D4F808855FEA8E
:102CE000485807D582F86190006803F09EF94FF4C8
:102CF0008060EFE7D4F808855FEA8878BDD592F860
:102D00006180B8F1010F0FD0B8F1030F30D0B8F1E6
:102D1000040F2DD0B8F1050F2DD0B8F1060F2DD02E
:102D2000B8F1080F2AD03CE082F8603092F83F30CA
:102D3000022B01D0032B34D103692BB992F8553003
:102D400083F0010382F855300369012B29D1D36C3C
:102D50003BB3B2F840502B445B1EB3FBF5F3DB07EB
:102D60001FD092F8553083F0010382F8553018E0F7
:102D700082F860C015E082F8605012E0D36D5B1CF1
:102D8000D365022B03D9D66582F8607009E082F81A
:102D900060C0D4F8003523F0804343F00043C4F80A
:102DA0000035C4F808C592F86020FEF798FC64E787
:102DB0007CB504680546D4F840040190D4F840047A
:102DC00020F02E0000900198800709D50198C007D7
:102DD00002D02846FEF714FC009840F00200009054
:102DE0000198000724D5009840F008000090019851
:102DF00040071AD5A869022803D0E86801280CD03A
:102E00000FE00198C0F341400228286803D0012157
:102E100003F0ACFA05E00221FAE74EF66020C4F8B0
:102E200004042846FEF7EAFD02E02846FEF7E2FD2C
:102E300001988006009802D540F020000090C4F868
:102E400040047CBD2DE9F041024600680646016A57
:102E5000C1F3434301F00F07C1F30A15022B31D12F
:102E6000002D2FD007EB470101EBC70102EB8104D6
:102E7000616C002926D0226DE36C2A449A4223D843
:102E80002A4603F092FA606C28446064206D28445E
:102E9000206506EB4710D0F81015B4F84020C1F3B8
:102EA000C941AA420ED100290CD0D0F8001521F05A
:102EB000804141F00041C0F8001514F8540F80F033
:102EC00001002070BDE8F081042084F86000F9E77B
:102ED000FEE70000F0B500220D4B154614460A2708
:102EE000B1FBF3F630368654B1FBF3F603FB161153
:102EF000B3FBF7F3521C861816F8016C302E00D184
:102F000025B16D1C641C0A2CEAD3F0BD0022F9E740
:102F100000CA9A3B00B58DB0302212A16846FDF779
:102F20008BF900221B491C4805F018FA20B100BF9C
:102F3000FDF7B9FC0DB000BD0A2218A1194805F033
:102F400041FA0028F4D10CAB2D226946154805F052
:102F50008EFB0C990029EBD00028E9D1114805F02F
:102F6000E7F9E7E7546865207369746520697320A1
:102F700053544D3332637562652E636F6D20776FE6
:102F8000726B696E67207769746820466174467356
:102F90000000000045000020B400002061612E54B4
:102FA00058540000E40200200F4808B5816C41F439
:102FB00080518164806C0D4900F4805000900C4871
:102FC00041F2210201600121017182600822C26088
:102FD000417100220261426182610162FEF702F8E2
:102FE000002800D0FEE708BD00100240003002407B
:102FF0002C050020002804D0012280210248FEF781
:10300000F4BA0022F9E700000010004810B50349A7
:103010000348FDF74AFC0349087010BD4500002035
:10302000D09400084400002010B586B014216846F2
:10303000FDF71BF91948C16C41F08001C164C16CF6
:1030400001F080010591C16C41F01001C164C16CB7
:1030500001F010010591C16C41F00101C164C06C27
:103060000F4C00F00100059000224FF4C071204683
:10307000FEF7BBFA012251022046FEF7B6FA4FF4E2
:1030800060700121CDE900010220CDE902106946FE
:103090002046FEF79BF906B010BD0000001002406C
:1030A000001000480C4810B50A4901604FF4E131A6
:1030B0004160002181600C22C160C0E9041281617D
:1030C000C16101624162FFF733FB002801D072B693
:1030D000FEE710BD003801405005002010B5012268
:1030E0000B490C4801F0D9FB08B1FDF7DCFB0A499C
:1030F000084802F009FE08B1FDF7D5FB054802F0CB
:1031000049FE002803D0BDE81040FDF7CCBB10BD40
:10311000AD5D00081C0A002054000020014802F0A8
:10312000BBBC00001C0A002008B500208DF8000080
:10313000444800F073FD444800F070FD434800F03F
:103140006DFD434800F06AFD404800F067FD4148CE
:1031500000F064FD3B4800F061FD3FA000F05EFD23
:10316000FDF71EFC3E4C20603EA000F057FD4DA038
:1031700000F054FD5BA000F051FD6AA000F04EFD90
:10318000206800280DD077A000F048FD207810F0CE
:10319000050F09D083A000F041FD91A000F03EFD95
:1031A000FEE79EA000F03AFDACA000F037FDBB4862
:1031B00001680A8B42F008020A830068018B41F023
:1031C000100101834FF0FF3301226946B348FFF736
:1031D0002BFB9DF80000312807D0322808D0332877
:1031E00009D0342813D0AEA018E000F0AFFBBBE745
:1031F00000F0A4FCB8E7BAA000F010FDC14948688F
:10320000A0606060096881F308888047ACE72068A7
:1032100048B10120FDF76AFC18B1BBA000F0FEFC2C
:10322000A2E7C5A006E00020FDF760FC08B1CAA037
:10323000F4E7D4A000F0F2FCDAA000F0EFFCFEF717
:103240003DF891E7CC980008E89700089C970008A3
:1032500080980008349800080D0A0D0A000000004C
:10326000080000200D0A3D3D3D3D3D3D3D3D3D3DBD
:103270003D3D3D3D3D3D3D3D3D204D61696E204D17
:10328000656E75203D3D3D3D3D3D3D3D3D3D3D3DFA
:103290003D3D3D3D3D3D3D3D3D3D3D3D3D3D3D3D5E
:1032A0000D0A0A002020446F776E6C6F61642069FC
:1032B0006D61676520746F2074686520696E746540
:1032C000726E616C20466C617368202D2D2D2D2D42
:1032D0002D2D2D2D2D2D2D2D2D2D2D2D20310D0A6A
:1032E0000A000000202055706C6F616420696D61D8
:1032F00067652066726F6D2074686520696E7465FD
:10330000726E616C20466C617368202D2D2D2D2D01
:103310002D2D2D2D2D2D2D2D2D2D2D2D20320D0A28
:103320000A00000020204578656375746520746884
:1033300065206C6F61646564206170706C696361A5
:1033400074696F6E202D2D2D2D2D2D2D2D2D2D2DB4
:103350002D2D2D2D2D2D2D2D2D2D2D2D20330D0AE7
:103360000A000000202044697361626C6520746863
:10337000652077726974652070726F746563746913
:103380006F6E202D2D2D2D2D2D2D2D2D2D2D2D2DF7
:103390002D2D2D2D2D2D2D2D2D2D2D2D20340D0AA6
:1033A0000A00000020205468652077726974652047
:1033B00070726F74656374696F6E206469736162A3
:1033C0006C652077696C6C20657261736520616C37
:1033D0006C2074686520666C6173680D0A000000DB
:1033E0002020506C65617365207573652053546CA3
:1033F000696E6B207574696C69747920746F2064D0
:10340000697361626C65207468652070726F7465A1
:103410006374696F6E20200D0A0A00002020456E3B
:1034200061626C65207468652077726974652070CC
:10343000726F74656374696F6E202D2D2D2D2D2D87
:103440002D2D2D2D2D2D2D2D2D2D2D2D2D2D2D2DAC
:103450002D2D2D2D20340D0A0A0000003D3D3D3D4F
:103460003D3D3D3D3D3D3D3D3D3D3D3D3D3D3D3D8C
:103470003D3D3D3D3D3D3D3D3D3D3D3D3D3D3D3D7C
:103480003D3D3D3D3D3D3D3D3D3D3D3D3D3D3D3D6C
:103490003D3D3D3D3D3D0D0A0A0000005005002028
:1034A000496E76616C6964204E756D62657220218B
:1034B000203D3D3E20546865206E756D626572202A
:1034C00073686F756C6420626520656974686572E5
:1034D00020312C20322C2033206F7220340D00003C
:1034E00053746172742070726F6772616D206578B9
:1034F00065637574696F6E2E2E2E2E2E2E0D0A0AA0
:1035000000000000009001084572726F723A204678
:103510006C61736820777269746520756E2D7072A6
:103520006F74656374696F6E206661696C65642E83
:103530002E2E0D0A0000000057726974652050722B
:103540006F74656374696F6E2064697361626C6522
:10355000642E2E2E0D0A00004572726F723A2046BC
:103560006C6173682077726974652070726F74651E
:103570006374696F6E206661696C65642E2E2E0D12
:103580000A00000057726974652050726F74656399
:1035900074696F6E20656E61626C65642E2E2E0DEF
:1035A0000A00000053797374656D2077696C6C2094
:1035B0006E6F7720726573746172742E2E2E0D0AF1
:1035C00000000000FEE7FEE70148FEF7D5B8000066
:1035D000F40D0020704700002DE9F041444C0546F1
:1035E0008846E0680026810728680DD0E16801F070
:1035F0000301814216D1A8B1E0686968C0F30210E6
:10360000401C88420ED120E0012804D0022805D0B9
:10361000032807D108E02168890701E021684905EE
:10362000002907DB01265FE02168890302D42168B5
:103630004903F5E7E1686A686FF00F0321F0730151
:1036400003EB021211430143E160206820F0806027
:103650002060FDF7CFFF074605E000BFFDF7CAFF7A
:10366000C01B022837D820680001F7D4B8F1000F3A
:1036700018D0B8F1010F1ED0287D4FF07E414008D0
:1036800001EB4060A96840EA01202169194A114014
:1036900008432061206840F080602060FDF7AAFFA9
:1036A00007461AE0A868E9680002090940EA4140B3
:1036B0002169114AEBE7288A1049400801EB405084
:1036C000A96840EA012021690D4AE0E7FDF792FF71
:1036D000C01B022801D9032606E020680001F5D5A9
:1036E0002069A969084320613046BDE8F0810000E7
:1036F00000100240FF80FFF9FF80FDFF0000E0FFA7
:10370000FF809FFF2DE9F0413D4C06468846E0686A
:103710000025810730680DD0E16801F00301814286
:1037200016D1A8B1E0687168C0F30210401C88424D
:103730000ED120E0012804D0022805D0032807D1AB
:1037400008E02168890701E021684905002907DBB5
:10375000012551E02168890302D421684903F5E776
:10376000E16872686FF00F0321F0730103EB02123E
:1037700011430143E160206820F080502060FDF794
:1037800039FF074605E000BFFDF734FFC01B0228E4
:1037900029D820688000F7D4B8F1000F15D0307C0C
:1037A0004FF07E41400801EB4060B16840EA0120E3
:1037B0006169144A114008436061206840F08050FC
:1037C0002060FDF717FF07460FE0B068F1680002C0
:1037D000090940EA414061690B4AEBE7FDF70AFF3E
:1037E000C01B022801D9032506E020688000F5D51A
:1037F00060697169084360612846BDE8F081000096
:1038000000100240FF80FFF9FF80FDFFF8B51C4D5E
:1038100006460024A86DC00002D5FEF7EFF90DE0C2
:10382000A86D40F08050A865A86D00F08050009011
:10383000FEF7E4F9A96D21F08051A965B0F5007F8C
:1038400004D0802E07D94FF003040AE0802E08D957
:10385000A02E01D804E001D1022402E0702E00D194
:1038600001240848016821F0070121430160006834
:1038700000F00700A04201D00120F8BD0020F8BDF3
:1038800000100240002002402DE9F84300240F46BA
:103890000646904613460C60012269462848FEF70A
:1038A000C3FF050020D19DF80000182820D006DCB9
:1038B00001280BD002280BD0042804D104E04128B1
:1038C00027D0612825D0012530700DE0802401E04B
:1038D0004FF480643070221D4346B11C1848FEF737
:1038E000A3FF050017D0002428463C60BDE8F883FC
:1038F0004346012269461248FEF796FF18B99DF823
:103900000000182803D001259DF80000DCE7022400
:10391000DAE70225D8E7F178B07881F0FF01884234
:103920000BD1301922460179407900EB0128311D75
:103930000448FDF730FB4045D6D000240125D3E7ED
:10394000500500202C0500207047000010B586B0FF
:103950000020029003900490059020A000F05EF9F2
:1039600005A802F0E1FD04464F2000F04DF93CB1FE
:10397000052C2AD0042C2AD0022C2CD026A027E0FB
:103980002D4800F04BF92D4800F048F902A80599A0
:10399000FFF7A0FA2AA000F041F902A800F03EF9D2
:1039A0002AA000F03BF92CA000F038F930A16C20DF
:1039B000CDE90001394B3AA23FA1042004F0B8F848
:1039C000404805F00BFA06B010BD3FA000E04EA045
:1039D00000F024F9F7E753A0FAE700005761697493
:1039E000696E6720666F72207468652066696C6511
:1039F00020746F2062652073656E74202E2E2E2039
:103A00002870726573732027612720746F206162AC
:103A10006F7274290A0D00000A0D4661696C6564B5
:103A200020746F207265636569766520746865200F
:103A300066696C65210A0D0048970008D4050020CE
:103A40000A0D2053697A653A2000000020427974FB
:103A500065730D0A000000002D2D2D2D2D2D2D2D0F
:103A60002D2D2D2D2D2D2D2D2D2D2D0D0A00000050
:103A70002D2D2D2D2D2D2D2D2D2D2D2D2D2D2D6A39
:103A8000756D7020746F206170702D2D2D2D2D2D72
:103A90002D2D2D2D2D2D2D2D2D2D0000799400084F
:103AA0002E2E5C436F72655C5372635C6D656E7540
:103AB0005C6D656E752E6300626F6F745F6D656E11
:103AC00075000000009001080A0A0D54686520691D
:103AD0006D6167652073697A65206973206869671D
:103AE000686572207468616E2074686520616C6C12
:103AF0006F776564207370616365206D656D6F72AB
:103B000079210A0D000000000A0A0D5665726966E7
:103B100069636174696F6E206661696C6564210A0E
:103B20000D0000000D0A0A41626F72746564206224
:103B30007920757365722E0A0D00000008B500200B
:103B40008DF800000EA000F069F84FF0FF3301225D
:103B500069461248FEF768FE9DF8000043280DD123
:103B60004FF496220EA1144802F0A6FD8DF8000035
:103B700008B112A000E01CA000F050F808BD000041
:103B80000A0A0D53656C6563742052656365697636
:103B9000652046696C650A0D000000005005002094
:103BA00055706C6F61646564466C617368496D61E2
:103BB00067652E62696E0000009001080A0D45726B
:103BC000726F72204F6363757272656420776869E3
:103BD0006C65205472616E736D697474696E6720D0
:103BE00046696C650A0D00000A0D46696C65207512
:103BF000706C6F616465642073756363657373666D
:103C0000756C6C79200A0D0001B5642301226946A8
:103C10000148FEF789FE08BD50050020002201E0A2
:103C2000521C92B2815C0029FAD1014664230148FA
:103C3000FEF77ABE50050020F0B5054600242A782C
:103C400020462346302A2ED16A78782A01D0582A75
:103C500029D102241CE000BFA2F14106052E07D99C
:103C6000A2F16107052F03D91136092E04D913E0FB
:103C7000A2F13007092F01D8303A04E0052E01D80F
:103C8000373A00E0573A641C02EB03130B2C04D2C2
:103C90002A5D002AE0D103E000202A5D002A01D13C
:103CA00001200B60F0BD2A5D62B16B2A01D04B2A66
:103CB00002D10CB19B0205E06D2A01D04D2A04D13E
:103CC0001CB11B0501200B600AE0A2F13006092E91
:103CD0000CD803EB83036FF02F0606EB430313446A
:103CE000641C0B2CDED20128DDD1F0BD0020F0BD1C
:103CF000FDF7B8BE10B596B044216846FCF7B5FA9A
:103D0000142111A8FCF7B1FA4FF40070FDF73AFF47
:103D100008B172B6FEE71020009001200024602157
:103D20000690CDE907410221CDE90A100C90282028
:103D30000D900720CDE90E0168461091FEF744FA78
:103D400008B172B6FEE70F2011900320CDE91204EE
:103D50001494042111A81594FEF730F9002801D01D
:103D600072B6FEE716B010BD0248016841F470015A
:103D70000160704788ED00E090F82410C90706D074
:103D800001684A68836A22F400321A434A6090F854
:103D90002410890706D501684A68C36A22F4803274
:103DA0001A434A6090F82410490706D501684A680A
:103DB000036B22F480221A434A6090F8241009070A
:103DC00006D501684A68436B22F400421A434A60F0
:103DD00090F82410C90606D501688A68836B22F41E
:103DE00080521A438A6090F82410890606D501682B
:103DF0008A68C36B22F400521A438A6090F8241038
:103E0000490611D501684A68036C22F480121A43EE
:103E10004A60016CB1F5801F06D101684A68436CA5
:103E200022F4C0021A434A6090F82410090606D50D
:103E300001684A68806C22F4002202434A6070479D
:103E4000F8B500260446C0F88060FDF7D3FB0546B0
:103E5000206800686FF07E47000708D52B460022D7
:103E60004FF400112046009700F03CF960B920683B
:103E7000006840070AD52B4600224FF480012046F7
:103E8000009700F02FF908B10320F8BD2020A067AB
:103E9000E067266684F874600020F8BD2DE9F041E3
:103EA0000446016880682269E3691043626900255D
:103EB0001A431043814F0A68814B1A4002430A603B
:103EC00020684168E26821F4405111434160216853
:103ED000A069B94201D0226A10438A6822F4306294
:103EE00002438A607749226877488A420DD1D0F828
:103EF000880010F0030006D0012866D0022854D0B4
:103F0000032851D163E001204FE070498A420BD170
:103F1000D0F8880010F00C0047D0042845D00828BD
:103F200051D00C2840D152E069498A420BD1D0F8D7
:103F3000880010F0300038D0102846D0202842D019
:103F4000302831D143E063498A420BD1D0F8880050
:103F500010F0C00029D0402837D0802833D0C028A6
:103F600022D134E05C498A420ED1D0F8880010F4A6
:103F700040701AD0B0F5807F27D0B0F5007F22D0F6
:103F8000B0F5407F10D122E0BA420DD1D0F88800C0
:103F900010F4406009D0B0F5806F16D0B0F5006F16
:103FA00011D0B0F5406F12D010204C4900264FF4CC
:103FB0000043BA422ED160B102280DD004280DD0A2
:103FC00008286FD10EE00220EFE70420EDE708207B
:103FD000EBE7FEF783F803E00B4603E0FEF7A2F8F9
:103FE000030060D0626802EB420098425AD8B3EBFB
:103FF000023F57D8190E1B025008181871410023B0
:10400000FCF7E6F8364AA0F5407191424AD821689B
:10401000C86048E0E2694FF6EF779A4227D1092855
:1040200040D2DFE800F005080D3F213F3F3F0E0082
:10403000FEF754F801E0FEF763F8030001D132E027
:104040000B466068590001EB5001B1FBF0F0A0F1A4
:104050001001B94226D84FF6F0710140C0F342007A
:1040600001432068C1601EE0FEF75CF8E5E709281F
:1040700018D2DFE800F005080D171D1717170E00FE
:10408000FEF72CF801E0FEF73BF8030001D10AE04F
:104090000B46606803EB5001B1FBF0F0A0F110019A
:1040A000B94208D9012566662846A666BDE8F081B2
:1040B000FEF738F8E9E780B2A9E700000080004089
:1040C000F369FFEF00380140001002400044004057
:1040D00000480040004C0040005000400024F40024
:1040E000FFFC0F002DE9F0479A4617460E4604469E
:1040F0004FF000094FF02008089D4AE0681C48D0A6
:10410000FDF778FAA0EB0A00A8422AD84DB3206840
:10411000016849073DD5C069C043000539D421680D
:104120004FF400600862206850E8001F21F4D0714D
:1041300040E80012002AF6D12068083050E8001F3D
:1041400021F0010140E80012002AF5D1C4F878807E
:10415000C4F87C80C4F8808084F874900320BDE8A3
:10416000F087216851E8000F20F4D07041E8000288
:10417000002AF6D12068083050E8001F21F0010124
:1041800040E80012002AF5D1C4F87880C4F87C8099
:10419000E2E72068C06936EA000004D00020B84297
:1041A000ACD00020DBE70120F9E770B504460D46EE
:1041B000204600F0FBF8A0F57F42FF3A07D000F060
:1041C0000F0204EB820245F40041C2F88413C0B22E
:1041D00070BD30B585B01D4601244FF0000C029231
:1041E00001910223CDF80CC000942246294600F02C
:1041F00053FC05B0002030BD30B585B08C46089921
:104200001D4690F81D43002C00D00021012402928D
:1042100003910223CDF804C000940022294600F047
:104220003BFC05B0002030BD10B500F057FB00206E
:1042300010BD8278012A07D1022202740122427441
:10424000002242828182C2820022114600F013B80D
:1042500030B585B01D464FF0000C0124029201914B
:104260006346CDF80CC000942246294600F014FCA9
:1042700005B0002030BD70B504460120A3780125AB
:10428000012B0BD0022B08D1204600F0FDF858B1CD
:10429000032809D0022800D1A57070BDA160A281B9
:1042A00025760221A17070BDA5700021217670BD18
:1042B00030B585B08C4608991D4690F81D43002CFA
:1042C00000D000210124002302920391CDF804C004
:1042D00000941A46294600F0DFFB05B0002030BDEF
:1042E00010B584B0144600234FF0080C01910093E0
:1042F0001A46CDF808C00393214600F0CDFB04B068
:10430000002010BDFCF7AABE30B4844600200CF596
:104310004E7400EB800C0CEBC00C04EB4C0C0CF15D
:104320000A0C9CF805508D4201D0FF290BD19CF856
:104330000650954201D0FF2A05D19CF807C09C4544
:1043400006D0FF2B04D0401CC0B20228E1D3FF20CE
:1043500030BC70470B2907D200EB8100B0F8841302
:10436000C1F30E01C0F884130020704730B48C46AE
:1043700002998478012C10D14CF0800C80F810C088
:104380004FF0060C80F811C0428202F47F42B2F571
:10439000407F07D000228282C1820A4630BC194683
:1043A000FFF769BF40F209428282F5E7014600202B
:1043B00001EB8002B2F8842312F4004F05D0401CB8
:1043C000C0B20B28F4D34FF6FF7070470A88037809
:1043D0001A440A80017808447047F8B504460E462E
:1043E00004F11C052B464FF4007200212046009674
:1043F000FFF7BCFF071E05D13246294604F54E7073
:1044000001F088FA3846F8BDF8B504460D4604F5C3
:104410008E734FF48072002120460095FFF7A6FFAF
:10442000061E06D12A4604F58E7104F2263001F0EC
:10443000CAFA3046F8BDF8B5044616461D4641F4A2
:10444000407204F58E73002120460095FFF78EFF21
:10445000071E05D12A46314604F58E7001F002FB95
:104460003846F8BD01460020002906D0012905D0B4
:10447000022905D0032905D0022070470220704789
:10448000012070470220704738B504460125207E80
:104490000C2880F0DA80DFE800F0D80610333F51B6
:1044A0005F7A869AA8BD627904F110012046FFF771
:1044B00017FF0220207600F0C8B86179204600F08E
:1044C0006BFA012804D0042817D0022815D0BCE0CC
:1044D000207C00F08000E18A39B1802802D00520DC
:1044E0002076B2E003202076AFE0802802D00720BB
:1044F0002076AAE009202076A7E00B202076A4E011
:10450000D4F8C403E0812379A2892046A168FFF78B
:104510009FFE0420207698E02179204600F03CFAA6
:10452000012801D109212176052802D0042802D0D2
:104530008BE0032589E00B20207686E001200090A7
:104540006379A2892046A168FFF7B2FED4F8C403BC
:10455000E0810620207678E06179204600F01CFAA0
:10456000012806D0052807D0022809D004280AD03F
:104570006BE00720207668E00C202076032564E0BD
:104580000520207661E00B20207602255DE00022E8
:10459000237911462046FFF75BFED4F8C403E0817F
:1045A0000820207651E02179204600F0F5F9012815
:1045B00004D0042806D0052807D046E00D20207638
:1045C000002542E00B2020763FE003253DE001205E
:1045D00000900022637911462046FFF769FED4F867
:1045E000C403E0810A2020762FE06179204600F0A4
:1045F000D3F9012804D0022806D0042807D024E0EB
:1046000000250D20207620E0092020761DE00B20DB
:1046100020761AE0607E401CC0B26076022803D883
:1046200001202076A07010E0D4F8D4230621204683
:1046300090470025657661792046FFF78BFE21794A
:104640002046FFF787FE25700225284638BD2DE954
:10465000F04184B004460125607800260D27A84665
:10466000082880F00C81DFE800F00442628EAECFB3
:10467000E3F808212046FFF7C7FE18B1032821D030
:1046800000F0FDB894F82D03A07184F8018094F82F
:104690001D1302900196009194F81C332179802219
:1046A000204601F028F9A07994F81D130290019694
:1046B000009194F81C3361790022204601F01BF927
:1046C00000F0DDB894F81E03401CC0B284F81E034D
:1046D000032802D9277000F0D2B861792046FFF78D
:1046E00039FE21792046FFF735FE2670C7E01221FA
:1046F0002046FFF789FE10B1032803D0BFE0022057
:104700006070BCE094F81E03401CC0B284F81E0325
:10471000032801D92770B2E061792046FFF71AFE1D
:1047200021792046FFF716FE66702670A7E001216A
:10473000204601F005FB10B1032821D09FE00220A4
:10474000FFF7E0FD434684F81C8303206070A079E6
:1047500094F81D1302900196009121798022204641
:1047600001F0C9F8A07994F81D1302900196009108
:1047700094F81C3361790022204601F0BCF87EE0F9
:10478000277066707BE009212046FFF726FE10B1F6
:10479000032803D073E00420607070E094F81E03D7
:1047A000401CC0B284F81E03032801D9277066E0BC
:1047B00061792046FFF7CEFD21792046FFF7CAFD3B
:1047C000667026705BE0B4F83A132046FFF705FEEA
:1047D00010B1032803D052E0052060704FE094F838
:1047E0001E03401CC0B284F81E03032801D92770A1
:1047F00045E061792046FFF7ADFD21792046FFF7BE
:10480000A9FD667026703AE094F83413062669B163
:10481000FF2304F58E722046FFF70DFE10B103282A
:1048200002D02CE066702AE0667028E0667026E010
:1048300094F83513072671B1FF2304F58E722046D4
:10484000FFF7F9FD18B1032803D018E005E0667002
:1048500015E0667013E0667011E094F8361369B1E4
:10486000FF2304F58E722046FFF7E5FD10B1032803
:1048700002D004E0002502E0002500E0002504B09D
:104880002846BDE8F08101780B2905D1D0F87C13CA
:10489000002901D089690847704770B504460E4663
:1048A000002C19D084F8CC230025C4F87C53C4F81C
:1048B00080532046FBF7D1FF84F8235384F820531C
:1048C00084F8215384F822530EB1C4F8D4632046EF
:1048D00000F06EF8002070BD022070BD10B5D0F859
:1048E000D003FCF7ACFEBDE81040FFF7BBBD0121D3
:1048F00080F82013002180F8211380F82213002073
:10490000704710B50446012084F82103002084F884
:10491000200384F82303204600F0B5F821792046CF
:10492000FFF718FD61792046FFF714FD002010BD48
:1049300010B590F8CC03012802D10846FEF75AFBC7
:10494000C820FCF78BFB002010BDD0F8D003FCF78B
:104950006EBE10B50124D0F8D003FCF75CFE20B188
:10496000012805D0022803D101E0002400E0022440
:10497000204610BDD0F8D00301EB410202EBC1018B
:1049800000EB810090F83B10002902D090F8540011
:10499000704790F855007047D0F8D003FCF73EBE42
:1049A000D0F8C413491CC0F8C413FFF76CBF000053
:1049B00010B5044694F8CC0301281CD10F48C0F868
:1049C0000043C4F8D0034FF0A0410160082181608A
:1049D0000121C1600021016102228261C161FCF7F5
:1049E00068FF08B1FBF75FFF0448FCF711FE0146C2
:1049F000204600F029F8002010BD0000F40D002032
:104A000030B583B0DDF818C0089D079CCDF800C014
:104A100002950194D0F8D003FCF723FE03B0BDE863
:104A20003040FFF71FBD002180F82313704701219C
:104A300080F82313704710B5D0F8D003FCF7E2FFDD
:104A4000BDE81040FFF70EBDC0F8C4137047D0F8A2
:104A5000D00301EB410303EBC10100EB810090F8AF
:104A60003B10002902D080F8542001E080F8552046
:104A70000020704710B5D0F8D003FCF7CAFFBDE89E
:104A80001040FFF7EFBC10B5D0F8D003FCF7D7FF0C
:104A9000BDE81040FFF7E6BC70B584B0DDF820C07B
:104AA0000B9E0A9D099CCDF800C0039602950194C7
:104AB000D0F8D003FCF714FE04B0BDE87040FFF757
:104AC000D1BC03460220D3F87C13C969002A05D063
:104AD000012A07D189791846FFF7ABBBC979184677
:104AE000FFF7A7BB70470000D0F87C03C0690549F9
:104AF000416505498165012180F8501080F8521008
:104B0000002070475553424350403020F8B50646C8
:104B10000125D6F87C03C46994F850000C2880F075
:104B20001081DFE800F08806163E49717EAEB9D3E9
:104B3000E3FD84F86110022084F850000120009009
:104B400063791F2204F154013046FFF755FB00F052
:104B5000F8B861793046FFF71FFF012805D0022819
:104B600017D0052819D000F0ECB8E06D68B194F8C2
:104B7000600010F0800F04D0032084F8500000F093
:104B8000E0B8052084F85000DBE0072084F85000EE
:104B9000D7E0012084F85000D3E00A2084F85000C8
:104BA000CFE0237962893046D4F88C10FFF711FBEF
:104BB000042084F85000C4E021793046FFF7ECFE71
:104BC000012802D005281BD0BBE06289E06D90422D
:104BD00007D9D4F88C101144C4F88C10801AE06501
:104BE00001E00020E065E06D30B123793046D4F873
:104BF0008C10FFF7EEFAA4E0072084F85000A0E044
:104C0000092084F850009CE00120009063792289FB
:104C10003046D4F88C10FFF7EFFA062084F85000E5
:104C20008FE061793046FFF7B7FE012804D00228F3
:104C30001FD0052821D084E02289E06D904207D959
:104C4000D4F88C101144C4F88C10801AE06501E08F
:104C50000020E065E06D40B10120009063793046AE
:104C6000D4F88C10FFF7C8FA6BE0072084F85000E6
:104C700067E0052084F8500063E00A2084F85000C3
:104C80005FE023790D2204F178013046FFF7A1FAA5
:104C9000082084F8500054E021793046FFF77CFE6C
:104CA000012802D005280DD04BE0012084F85000E7
:104CB00084F85200304600F09BF808B1022540E02D
:104CC00000253EE0092084F850003AE000223046FA
:104CD000FFF7F7FE10B1042804D032E0072084F873
:104CE00050002EE00B2084F850002AE001223046CC
:104CF000FFF7E7FE10B1042816D022E061793046B4
:104D0000FFF738FEC0F10100C2B261793046FFF70B
:104D10009EFE217900223046FFF799FE092000E02F
:104D200006E084F850000CE00B2084F8500008E006
:104D3000304600F013F80546280002D1012084F81F
:104D400050002846F8BDA1220274FE2242740022BF
:104D5000428282820122C282FFF78DBA2121017430
:104D6000FF214174002141828182C18200221146CB
:104D7000FFF781BA70B50246D2F87C03C4690125F9
:104D8000A07B002804D0022802D003282ED126E0E0
:104D900021461046FFF7D7FF05460023032D01D11A
:104DA0002370002515BB2078022801D9022000E0DD
:104DB000401CC0B220700021002817D9022001EB4E
:104DC000810202EBC10204EB820282F8920082F8B7
:104DD000C130491CC9B222788A42F0D806E00021CD
:104DE0001046FFF726FA08B9E07BA073284670BD8D
:104DF00070B5D0F87C13CC6901252179FFF7A5FDAA
:104E00000D2801D0022514E00B49A06F88420FD174
:104E1000A16DE06F88420CD194F8840020B1012884
:104E200007D0022802D004E0002502E0022500E0BD
:104E30000225284670BD0000555342532DE9F0016C
:104E4000D0F87C33DB6900780B2803D0BDE8F00193
:104E50000220704701EB810000EBC10003EB8000F2
:104E600000F19C04D0F898C094E8F001D0F8943098
:104E7000D0F89010C2F808C00C32A2E8F001203A35
:104E800053601160D0F8B8C0D0F8BC40D0F8B4304E
:104E9000D0F8B010D0F8C000C2F828C0D462536275
:104EA00011621063BDE8F0010020704770B505463F
:104EB000D5F87C03C46900266179002907D028460B
:104EC000FFF7B2F961792846FFF744FA6671217954
:104ED00039B12846FFF7A8F921792846FFF73AFAB1
:104EE0002671D5F87C03C06920B103F063FED5F8C4
:104EF0007C03C661002070BD70B584B005465023A8
:104F0000D5F87C03062201792846FFF7FDF906460D
:104F1000FF2E01D0022E02D304B0022070BD314614
:104F2000284600F002FF10B104B0022070BD4FF41B
:104F3000807004F03BF8D5F87C13C861044620006B
:104F400013D04FF48071FBF790F906EB860000EB6D
:104F5000C60005EB400090F84E1311F0800F07D00B
:104F6000E171B0F85013618106E004B0022070BD19
:104F7000A171B0F85013218190F8561311F0800FF1
:104F800004D0E171B0F85803608103E0A171B0F87A
:104F900058032081002020736073A073A1792846F4
:104FA000FFF703F96071E1792846FFF7FEF82071F9
:104FB0002846FFF799FD208995F81D1302260290D7
:104FC0000196009195F81C33A2796179284600F08A
:104FD00092FC608995F81D1302900196009195F856
:104FE0001C33E2792179284600F085FC21790022E2
:104FF0002846FFF72CFD617900222846FFF727FDA0
:1050000004B0002070BD2DE9F0470546D5F87C03BB
:10501000C4694FF00109207B002804D0012840F02A
:10502000938100F08FB9B4F8F800217801264FF091
:105030000008884280F07D8100EB800101EBC00018
:1050400004EB800080F89160B4F8F810022701EBBF
:10505000810000EBC10004EB80004FF0050A90F8DE
:105060009020092A80F07081DFE802F0058248C8AC
:105070000EEF8282EE00042180F89010D5F8C40370
:10508000C4F8FC0000F060B900F19F02C9B22846E4
:1050900000F009FA014649B9B4F8F80000EB8002C3
:1050A00002EBC00004EB800080F89070022903D06E
:1050B00004290DD000F048B9B4F8F80000EB8001E5
:1050C00001EBC00004EB800080F890A000F03CB938
:1050D000B4F8F80000EB800101EBC00004EB8000A5
:1050E00080F89060B4F8F80000EB800101EBC0009C
:1050F00004EB800080F8917000F026B9C9B2284610
:1051000000F023FB014608002ED1B4F8F80000EBB4
:10511000800202EBC00004EB800090F8922012B1F4
:1051200080F8C16001E080F8C180B4F8F800032283
:1051300000EB800303EBC00004EB800080F89020BC
:10514000B4F8F80000EB800202EBC00004EB800032
:1051500080F89180B4F8F80000EB800202EBC00008
:1051600004EB800080F89280022902D0042930D01C
:10517000EAE0B4F8F80000EB800101EBC00004EBBA
:10518000800090F89210022902D080F8C16001E0FE
:1051900080F8C180B4F8F80000EB800101EBC0009A
:1051A00004EB800080F890A0B4F8F80000EB8001D8
:1051B00001EBC00004EB800080F89160B4F8F800C7
:1051C00000EB800101EBC00004EB800080F89270DE
:1051D000BAE0B4F8F80000EB800101EBC00004EB8A
:1051E000800080F89060B4F8F80000EB800101EBDB
:1051F000C00004EB800080F89170A5E000F19402FB
:10520000C9B2284600F00FFA20B102281ED00428A7
:1052100027D099E0B4F8F80000EB800101EBC00062
:1052200004EB800080F89060B4F8F80000EB800197
:1052300001EBC00004EB800080F89180B4F8F80026
:10524000401CA4F8F8007FE06FE01FE0B4F8F8001D
:1052500000EB800101EBC00004EB800080F890A01F
:1052600072E0B4F8F80000EB800101EBC00004EB41
:10527000800080F89060B4F8F80000EB800101EB4A
:10528000C00004EB800080F891705DE000F19C02AA
:10529000C9B2284600F00DFA014601BBB4F8F80087
:1052A00000EB800202EBC00004EB800090F89C2031
:1052B000062A01D0022A0BD1D5F8C423D4F8FC3039
:1052C000D21A42F210739A4202D280F890703BE0F8
:1052D00080F89060B4F8F800401CA4F8F8000229A7
:1052E00002D004290CD02FE0B4F8F800082100EB1C
:1052F000800202EBC00004EB800080F8901023E0F5
:10530000B4F8F80000EB800101EBC00004EB800072
:1053100080F89060B4F8F80000EB800101EBC00069
:1053200004EB800080F891700EE0481CA4F8F800AF
:105330000AE0A4F8F8802673D5F8D4230221284681
:10534000904701E04FF000094846BDE8F0872DE99D
:10535000F8438446DCF87C03C069012501EB810237
:1053600002EBC10200EB8204012694F890000827AA
:10537000052835D000224FF00508062802D007285E
:1053800041D116E0002300921A46604600F0FDF875
:1053900020B1022806D0042807D034E084F89060B9
:1053A000002530E084F890802DE084F8907002258C
:1053B00029E0002300921A46604600F0EDF920B182
:1053C000022806D0042807D01DE084F8906000254C
:1053D00019E084F8908016E084F89070022512E0BD
:1053E00004F19C02604600F064F928B984F89060EA
:1053F000022184F891100225022804D0042802D149
:1054000084F8907002252846BDE8F8832DE9F8431A
:105410000446089F8846D4F87C03C56994F82003A5
:1054200000280CD020780B2809D108EB880000EB6D
:10543000C80005EB800090F89010012902D00220EE
:10544000BDE8F8830621297380F89010A5F8FA804A
:1054500041462046009700F098F8D4F8C4634146CE
:105460002046FFF774FF4FF00109012811D140F2E7
:1054700071204743D4F8C403801BB0EB071F0DD83D
:1054800094F8200350B141462046FFF760FF012801
:10549000F0D085F80C900020BDE8F88385F80C90DA
:1054A0000220BDE8F8832DE9F041034615460227A6
:1054B000D3F87C03C46900264FF0010894F8520029
:1054C000012802D002285DD126E02420E065802258
:1054D00084F860200A2284F86220C4F86360C4F86B
:1054E0006760A4F86B60122284F86320490184F895
:1054F000641084F8656084F8666084F8670084F856
:10550000686084F85080022084F8520004F1100092
:10551000C4F88C00012735E01846FFF7F7FA074674
:1055200038002FD122212846FAF79FFED4F88C00AC
:10553000007800F01F006870D4F88C0000784009F3
:105540002870D4F88C00407810F0800F02D085F8D5
:10555000028000E0AE70D4F88C008168C5F80310BA
:10556000C068C5F80700D4F88C000169E96041699A
:10557000296181696961C069A861D4F88C00006AF9
:10558000C5F81D003846BDE8F0813FB4044602204E
:10559000D4F87C23D26992F852C0BCF1010F07D035
:1055A000BCF1020F3CD104B0204630BCFFF7AEBACC
:1055B000B2F8980006994843D065802082F86000D0
:1055C0000A2082F862000020C2F86300C2F8670077
:1055D000C2F86B00C2F86F00282082F863009DF8C3
:1055E0000B0082F865009DF80A0082F866009DF8BD
:1055F000090082F867009DF8080082F868009DF8AD
:10560000190082F86A009DF8180082F86B000120EA
:1056100082F85000022082F85200C2F88C3001203B
:1056200004B030BC704770B5844615460120DCF8E4
:105630007C23D46994F85230012B1BD0022B18D153
:105640006046FFF763FA002813D1D4F88C10CA78AB
:105650008B7842EA03224B7809781B0443EA016104
:1056600011432960D4F88C10CA79897942EA012162
:10567000A98070BD0821E165802184F860100A21AD
:1056800084F862100021C4F86310C4F86710C4F8ED
:105690006B10C4F86F10252184F86310012184F881
:1056A0005010022184F8521004F11001C4F88C103B
:1056B00070BD70B5034615460220D3F87C23D4692B
:1056C00094F85220012A15D0022A12D11846FFF769
:1056D0001DFA00280DD1D4F88C10897801F00F0143
:1056E0002970D4F88C10097B6970D4F88C10497B30
:1056F000A97070BD0E22E265802084F860000A2047
:1057000084F862000020C4F86300C4F86700C4F89D
:105710006B00C4F86F00032384F86330490184F8F8
:10572000641084F8650084F8660084F8672084F8C3
:105730006800012084F85000022084F8520004F12F
:105740001000C4F88C00012070BD84460220DCF8F3
:105750007C23D26992F85230012B04D0022B1AD14B
:105760006046FFF7D3B90020D06582F860000A21B7
:1057700082F86210C2F86300C2F86700C2F86B00DA
:10578000C2F86F0082F86300012082F85000022006
:1057900082F85200012070473FB404460220D4F83A
:1057A0007C23D26992F852C0BCF1010F07D0BCF142
:1057B000020F3BD104B0204630BCFFF7A7B9B2F8C6
:1057C000980006994843D065002082F860000A21BD
:1057D00082F86210C2F86300C2F86700C2F86B007A
:1057E000C2F86F002A2082F863009DF80B0082F84F
:1057F00065009DF80A0082F866009DF8090082F8AD
:1058000067009DF8080082F868009DF8190082F88A
:105810006A009DF8180082F86B00012082F85000A1
:10582000022082F85200C2F88C30012004B030BC53
:10583000704700207047D0F87C23D26900780B288D
:1058400008D101EB810000EBC10002EB800090F871
:10585000910008B100207047012070472DE9F843FE
:105860000446089F8846D4F87C03C56994F8200351
:1058700000280CD020780B2809D108EB880000EB19
:10588000C80005EB800090F89010012902D002209A
:10589000BDE8F8830721297380F89010A5F8FA80F5
:1058A000414620460097FFF777FFD4F8C46341468E
:1058B0002046FFF74CFD4FF00109012811D140F2BD
:1058C00071204743D4F8C403801BB0EB071F0DD8E9
:1058D00094F8200350B141462046FFF738FD0128D7
:1058E000F0D085F80C900020BDE8F88385F80C9086
:1058F0000220BDE8F88330B583B0DDF818C0089DFC
:10590000079CCDF800C002950194FFF779F803B029
:10591000002030BD2DE9F84305468846002608786A
:105920002870487868708878CB7840EA03206880CF
:1059300008792871487968718879A871C879E871FF
:10594000087A2872092A3CD90920009032E0694679
:105950004046FEF73BFD804698F80100042829D117
:1059600006EB860000EBC60005EB400707F10A09CD
:105970004146484600F063F8002410E0694640467E
:10598000FEF724FD804698F80100052807D107EBB3
:10599000C4001430414600F042F8601CC4B299F8CB
:1059A0000400A04204D96888BDF800108842E5D8F8
:1059B000701CC6B2022E04D26888BDF8001088425E
:1059C000C5D8BDE8F8830B7803704B7843708B78AB
:1059D00091F803C043EA0C2343800B7903714B79A0
:1059E00043718B798371CB79C371082A16D90A7AEE
:1059F0004B7A42EA032202818A7ACB7A42EA032274
:105A000042810A7B4B7B42EA032282818A7B82733A
:105A1000CA7BC2730A7C0274497C417470470A785D
:105A200002704A7842708A788270CA78C2700A79A5
:105A30004B7942EA032282808979817170470A7822
:105A400002704A7842708A788270CA78C2700A7985
:105A500002714A7942718A798271CA79C271097A6E
:105A6000017270474378032B15D10378A3F1020C20
:105A7000944500D89A1E92B2831C0020002A08D9AF
:105A800013F800C081F800C0491C801C80B290420D
:105A9000F6D300200870704730B585B00446022068
:105AA0000490002094F82113012901D103212170D1
:105AB00021780C2980F01F81DFE801F0061A42F1FD
:105AC0008878E18C96A0B1FB94F82003002800F0C0
:105AD000128101202070C820FEF714FC2046FEF73A
