:020000040800F2
:10000000986B0020A5010008C3390008E7310008FB
:10001000C1390008350A00084976000800000000D0
:10002000000000000000000000000000F94A000885
:10003000810A000800000000D1390008B54B000813
:10004000BF010008BF010008BF010008BF01000890
:10005000BF010008BF010008BF010008BF01000880
:10006000BF010008BF010008BF010008BF01000870
:10007000BF010008BF010008BF010008BF01000860
:10008000BF010008BF010008BF010008BF01000850
:10009000BF010008BF010008BF010008BF01000840
:1000A000BF010008BF010008BF010008BF01000830
:1000B000BF010008BF010008BF010008BF01000820
:1000C000BF010008BF010008BF010008BF01000810
:1000D000BF010008C5520008BF010008BF010008A9
:1000E000BF010008BF010008BF010008BF010008F0
:1000F000BF010008BF010008BF010008BF010008E0
:10010000BF010008BF010008BF010008BF010008CF
:10011000BF010008BF010008BF010008BF010008BF
:10012000BF010008BF010008BF010008BF010008AF
:10013000BF010008BF010008BF010008BF0100089F
:10014000BF010008BF010008BF010008C539000851
:10015000BF010008BF010008BF010008BF0100087F
:10016000BF010008BF010008BF010008BF0100086F
:10017000BF010008BF0100080000000000000000EF
:10018000BF010008BF010008DFF814D000F0B0FB89
:1001900000F0C2F800480047F5CB000800F012FB61
:1001A000986B00200648804706480047FEE7FEE7B8
:1001B000FEE7FEE7FEE7FEE7FEE7FEE7FEE7FEE717
:1001C0002D4C0008890100082DE9F05F054600204C
:1001D00092469B4688460646814640241BE02846B8
:1001E00041464746224600F08EFA53465A46C01A08
:1001F000914110D311461846224600F075FA2D1A87
:1002000067EB01084F4622460120002100F06CFAFE
:1002100017EB00094E41201EA4F10104DFDC484623
:1002200031462A46434600F000B830BCBDE8C09FC6
:1002300040EA01039B0703D009E008C9121F08C068
:10024000042AFAD203E011F8013B00F8013B521EE8
:10025000F9D27047D2B201E000F8012B491EFBD25F
:1002600070470022F6E710B513460A4604461946C1
:10027000FFF7F0FF204610BD30B505462A460B4675
:1002800012F8010B13F8014B08B1A042F8D01CB1D1
:10029000002802D06D1CF1E7284630BD10B5044699
:1002A00004E00B7800F8013B03B1491C521EF8D260
:1002B000204610BD421C10F8011B0029FBD1801AFA
:1002C000704710B5002200E0521C835C8C5CA34296
:1002D00001D1002BF8D1D8B2E1B2401A10BD30B52F
:1002E00005460020034600E05B1C934205D2EC5C0F
:1002F000C85C201A01D1002CF6D130BD70B506467D
:1003000007F01CFB046805460A220021304600F075
:100310001CFA2C6070BD000070B5054C054D03E063
:10032000206820448047241DAC42F9D170BD0000F4
:10033000E8230108EC2301082DE9F04107461546A2
:100340000E46102007F02CFB04000AD06760C4E9B9
:10035000026500F033FA0168216004600020BDE806
:10036000F0810120FBE72DE9FE4F804681EA030082
:10037000C00F0C46009021F0004123F00045B8EB7F
:100380000200A94105D24046214690461C460B4634
:10039000024623F00040104347D0270DC7F30A0060
:1003A000C3F30A510290401A019040286BDAC3F35C
:1003B000130040F4801B0098924620B10023D2EB3A
:1003C000030A63EB0B0B01985946C0F140025046FB
:1003D00000F08AF906460D4650465946019A00F04B
:1003E000A2F910EB08006141002487EA115284EA67
:1003F000E7731A4340D0009A62B3019A012A4FEA88
:10040000075215DC001B61EB02014FF0004202EACB
:100410000752CDE90042001C41F5801132462B46BF
:1004200000F000FA03B000F045B840462146F9E775
:10043000001B61EB0201001C41F5801300185B41B9
:100440002018A2F5001747EB030140EAD570B61952
:100450006D4111E06D084FEA360645EAC0754FEA76
:100460000752001B61EB0201001C41F58011490895
:100470004FEA30000019514132462B4603B000F0DC
:100480001CB800F0C0B90098012240000023D0EB56
:10049000020263EBE073009821464FEAE074B8EB88
:1004A000000061EB0401E9E783F000435BE781F0C2
:1004B000004158E730BCBDE8C08F30BCBDE8C04F3C
:1004C000FFF7DFBF2DE9FE4F81EA030404F000448B
:1004D00021F0004100944FF0000B23F0004350EA5C
:1004E00001045ED052EA03045BD0C3F30A54C1F3A3
:1004F0000A552C44A4F2F3340194A0FB0254C1F336
:10050000130141F48011C3F3130343F4801301FB7F
:10051000024400FB034E840A970A44EA815447EAE6
:100520008357A4FB076802958D0A05FB07854FEAF0
:10053000932C04FB0C542705029D4FEA065847EA0A
:100540001637B5EB08056EEB070C870E920E47EADF
:10055000811742EA8312A7FB0201B6EB0B0164EBA1
:1005600000042B0D43EA0C335E1844EB1C50DA46B2
:100570005146E7FB0201C5F313044FEA0B3343EA8C
:1005800014534FEA0432019C43EA0603A4F10C041D
:100590000294009CCDE900B400F044F903B000F0EF
:1005A00003B800200146F9E730BCBDE8C08F2DE953
:1005B000F04D81EA030404F0004B21F0004514469D
:1005C0004FF0000A23F0004150EA050220D054EA1F
:1005D00001021DD0C5F30A570246C5F31303C1F348
:1005E0001300C1F30A5640F4801543F48013A7EBBF
:1005F0000608101BD64608F2FD3873EB050002D33F
:1006000008F1010801E092185B41B8F1000F03DA2C
:1006100000200146BDE8F08D00204FF48011064611
:1006200084460EE0171B73EB050705D3121B63EB23
:10063000050306434CEA010C49084FEA30009218C2
:100640005B4150EA0107EDD152EA030012D082EA81
:10065000040083EA0501084305D0101BAB4106D214
:100660000122002306E000224FF0004302E06FF079
:10067000010253101AEB06004CEB085110EB0A0074
:1006800041EB0B01BDE8F04D00F0BDB830B5041EE4
:1006900071F1000404DB4FF00044404264EB0101BF
:1006A000141E73F1000405DB1C464FF00043524258
:1006B00063EB0403994208BF904230BD30B50B464E
:1006C000014600202022012409E021FA02F59D4282
:1006D00005D303FA02F5491B04FA02F52844151E56
:1006E000A2F10102F1DC30BD202A04DB203A00FA3D
:1006F00002F1002070479140C2F1200320FA03F379
:10070000194390407047202A04DB203A21FA02F076
:100710000021704721FA02F3D040C2F1200291403B
:10072000084319467047202A06DBCB17203A41FAC6
:1007300002F043EAE07306E041FA02F3D040C2F16E
:10074000200291400843194670472DE9F047914631
:100750000F4680460446002614F8015B2DB100F0D8
:10076000D9F80068405DC007F6D12B2D02D02D2DA1
:1007700018D0641E4A463946204600F0CFF827B10B
:100780003968A14201D1C7F8008071054FF0020419
:100790000BD54042002803DD07F0D0F80460A00725
:1007A000BDE8F08746F48066E4E70028F8DA07F051
:1007B000C5F804606FF00040F2E7000000487047A1
:1007C000980600202DE9F0410646FFF7F7FF804626
:1007D000454613E016B1E068B0420ED120682860AB
:1007E000D4E90101D8F800708847204607F0AAF83C
:1007F000D8F80000B842EBD100E025462C68002C68
:10080000E8D1BDE8F08110B5141E73F1000408DAD8
:10081000401C41F1000192185B411A4301D120F0C4
:10082000010010BD2DE9F04D92469B4611B1B1FA81
:1008300081F202E0B0FA80F220329046FFF754FFD6
:1008400004460F4640EA0A0041EA0B0153465A4665
:10085000084313D0114653EA010019D0C8F14002F1
:100860005046FFF750FF05460E4650465946424651
:10087000FFF73AFF084305D0012004E0204639463F
:10088000BDE8F08D0020054346EAE0762C4337436F
:100890000A986305E40AA0EB08000022FD0A44EA76
:1008A00047540A3002D500200146E9E70105101936
:1008B0006941DDE9084500196941BDE8F04DA2E74D
:1008C000C1F30A52C1F3130140F2FF3341F4801126
:1008D0009A4202DA00200146704740F233439A42BE
:1008E000A2F2334202DC5242FFF70DBFFFF7FCBE1B
:1008F000064C074D06E0E06840F0010394E807006D
:1009000098471034AC42F6D3FFF742FC1822010896
:100910003822010800487047081801082DE9F05FE7
:1009200082460078002715468B460AF10104B94635
:10093000302801D09DB113E014F8010B012778286D
:1009400003D0582801D045B10AE00DB1102D07D1D0
:100950000027102514F8010B02E0082500E00A2505
:100960000026B0460EE005FB080005FB06F1012756
:1009700001EB10461FFA80F8B6F5803F00D3B94668
:1009800014F8010B294600F01CF80028EBDABBF143
:10099000000F05D00FB1641E00E05446CBF80040B4
:1009A000B9F1000F06D006F0C9FF02210160C81E90
:1009B00000F003B848EA0640FAE730BCBDE8C09F43
:1009C00070473A2800D2303820F02002412A01D363
:1009D000A2F13700884201D34FF0FF30704770B565
:1009E0008C1810F8015B15F0070301D110F8013BDA
:1009F0002A1106D110F8012B03E010F8016B01F861
:100A0000016B5B1EF9D12B0705D40023521E0DD4B8
:100A100001F8013BFAE710F8013BCB1A921C03E006
:100A200013F8015B01F8015B521EF9D5A142D8D33E
:100A3000002070BDFEE70021002200EB8103C3F817
:100A40008423491C0F29F8D30021431883F81C2163
:100A5000491CB1F5007FF8D302704270012181700A
:100A6000C0F8C423017640238371427680F81C23AA
:100A700080F81D1380F81F2380F81E230020704784
:100A8000704772B6FEE70022AFF3008010B48446D0
:100A900001200F4B9C7B022C17D2987B00241C5406
:100AA000987B03EB8000C0F804C0987B03F10C0C2A
:100AB00000F80C20987B421C9A73303008703A2062
:100AC00048702F208870CC70002010BC7047000048
:100AD000801C002010B590F825100022022905D0B6
:100AE0000421C16380F82420012010BD01680B6837
:100AF00023F00E030B6001680B6823F001030B6009
:100B000090F84410046C01F01C03012101FA03F376
:100B1000636080F8251080F82420104610BD10B5C1
:100B200090F825100024022903D00421C163012478
:100B30001AE001680A6822F00E020A6001680A6879
:100B400022F001020A6090F84410036C01F01C02CC
:100B5000012101FA02F25A6080F82510002180F884
:100B60002410816B01B18847204610BD70B5044642
:100B700000F022F90546601C02D0044800780444C5
:100B800000F01AF9401BA042FAD370BD0800002003
:100B90002DE9F04FDFF8EC9100220127A9F1040BB9
:100BA00085B003254FF00F0C09F1040AABF1040ED8
:100BB000E0E000BF07FA02F416EA04037ED00E79E3
:100BC00006F00306012E01D0022E1FD18668009682
:100BD000560005FA06F80496009E26EA08060096D6
:100BE000D1F80C80049E08FA06F8009E48EA060830
:100BF000C0F80880466891F80480A643C8F300183E
:100C000008FA02F848EA0608C0F80480D1F804801F
:100C10006FEA0806B6070AD1C66AA643C8F3C0043D
:100C200094403443C4620C79E443A4070AD0C468F6
:100C30004FEA420805FA08F6B4438E6806FA08F649
:100C40002643C6600C7904F00304022C11D1D408A9
:100C500000EB84060296D6F820805407E60E0CFAC4
:100C600006F428EA04080C69B440029E44EA080429
:100C7000346204685600029605FA06F6B4430E790B
:100C800006F00308029E08FA06F848EA0408C0F8CD
:100C900000804C6814F4403F6BD03B4C266E46F00D
:100CA00001062666246E22F0030604F00104009477
:100CB000364C34440294A468960700E059E04FEAA9
:100CC00016780CFA08F6B443B0F1904F04D0304EC9
:100CD000B04203D101261BE0002619E02D4EB042A0
:100CE00001D1022614E02C4EB04201D103260FE0C0
:100CF0002A4EB04201D104260AE0294EB04201D169
:100D0000052605E0274EB04201D1062600E0072661
:100D100006FA08F62643029CA660D9F800404E4623
:100D2000D1F804809C435FEAC82800D51C43346096
:100D3000DAF800405646D1F804809C435FEA8828E0
:100D400000D51C433460DBF800405E46D1F80480D7
:100D50009C435FEA883800D51C433460DEF80040CD
:100D60007646D1F804809C435FEAC83800D51C431E
:100D70003460521C0B681E46D3407FF41BAF05B095
:100D800000F012B8080401400010024000000140C9
:100D90000004004800080048000C0048001000480B
:100DA000001400480018004830BCBDE8C08F0AB1EC
:100DB0008161704781627047014880687047000018
:100DC00008000020D0F8000304F024BED0F800038F
:100DD00004F02ABE006806F0ABB9006806F0ACB9B2
:100DE00001EB410202EBC10100EB810090F86000D1
:100DF000704701EB410202EBC10100EB8100006D85
:100E0000704710B5044690F8F802012809D0012077
:100E100084F8F802206806F09AF9002084F8F802B5
:100E200010BD022010BD2DE9FE430546DDE90B7023
:100E300095F8F842DDF828C0012C1ED001EB4104E2
:100E400004EBC1044FF0010905EB840485F8F89226
:100E5000002684F83D6084F83830A4F8400084F817
:100E6000391084F83F7002F07F0884F83A805FEA16
:100E7000026805D584F83B9004E0022000F00EB82B
:100E800084F83B6084F83CC0CDF800C0CDE9017027
:100E9000286806F0BFF985F8F862EFE706BCBDE800
:100EA000F88370472DE9F00301EB4104DDE906C941
:100EB000DDE9087504EBC10400EB8404022684F824
:100EC0003B2084F83F30BCF1000F0AD084F8426028
:100ED00000256BB1012B2ED0022B12D0032B16D183
:100EE0000FE04FF0030884F8428084F83D50EFE7AC
:100EF000BCF1010F0BD152B9D7B9012284F85520AA
:100F000003E0AAB194F85420AAB184F84260C4F86E
:100F10004490E76484F86050256584F8391084F8BB
:100F2000615004F138010068BDE8F00306F0EDB946
:100F300094F85520E8E784F84250E8E72DE9F041BD
:100F400006680446304606F0FEF8012875D1206890
:100F500006F0B9FA002870D0206806F0B4FA8002D2
:100F600003D521684FF400104861206806F0ABFA01
:100F7000C00203D521684FF480104861206806F054
:100F8000A2FA400103D521684FF0806048612068D3
:100F900006F099FA800702D521680220486120688E
:100FA00006F091FA800015D521684FF00050486195
:100FB000D6F84004C0070DD11021304606F098F84D
:100FC000304606F077F80121206806F061FA2046E5
:100FD000FFF7FCFE206806F076FAC00102D5204635
:100FE00002F071F8206806F06EFA000705D5204679
:100FF00000F0EDF8216808204861206806F063FAE7
:10100000C043C0060CD42068816921F010018161C1
:10101000204602F0A2F82068816941F01001816148
:10102000206806F050FA800123D5206806F069F99F
:10103000074600254FF0010814E01AE005F00F0103
:1010400008FA01F038420CD006EB4510D0F8000544
:10105000E9B20004204602D501F04CFE01E001F0A7
:101060003CFF6D1CA068A842E8D821684FF00070D2
:101070004861BDE8F08170B58AB0040005D094F8ED
:10108000F9022568002618B107E001200AB070BDFA
:1010900084F8F862204600F027F8032084F8F9026B
:1010A000E86BC00500D42661206805F0E1FF04F17B
:1010B000100128220D466846FFF7BAF894E80F00A1
:1010C00005F0A8FF0121206806F039FA28222946F8
:1010D0006846FFF7ADF894E80F0006F093F9012099
:1010E00084F8F9020020D1E770B5AAB005460024C3
:1010F00024942594269427942894882102A8FFF705
:10110000B0F82868B0F1A04F43D14FF400500290DE
:1011100040031D90012003900490182005900720A3
:101120000690022607960896F004099002A800F09F
:101130002BFB08B1FFF7A5FC1E4DE86C40F0010049
:10114000E864E86C00F0010001904FF4C050249076
:1011500025962694032027900A20289024A94FF052
:101160009040FFF715FDE86C40F48050E864E86CAF
:1011700000F480500190A86D10F0805F0BD000F05B
:1011800029F900221146432000F0ACF8432000F07A
:101190009BF82AB070BDA86D40F08050A865A86D7E
:1011A00000F08050019000F015F9A86D20F08050FB
:1011B000A865E6E700100240D0F8000304F0C5BCC3
:1011C000D0F8000304F0C5BC006806F09FB9D0F861
:1011D000000304F078BC10B5044690F8F80201282A
:1011E0000DD0012084F8F8020121206805F046FFA7
:1011F000206805F059FF002084F8F80210BD022095
:1012000010BD10B5044690F8F802012809D001205D
:1012100084F8F802206806F0C0F9002084F8F8028B
:1012200010BD022010BD0000024881680278114400
:10123000816070470800002010B50024032000F0F2
:1012400071F80F2000F008F808B1012401E000F067
:1012500025F8204610BD000070B50E4E054600244E
:10126000307898B14FF47A71B1FBF0F00A4909680F
:10127000B1FBF0F001F0C1FA40B9102D06D2002206
:101280002946501E00F02EF8756000E0012420462B
:1012900070BD00000800002014000020094808B5B7
:1012A000016E41F001010166016E01F00101009142
:1012B000816D41F080518165806D00F0805000901B
:1012C00008BD000000100240002809DB00F01F02EA
:1012D000012191404009800000F1E020C0F8001198
:1012E00070470000F0B40E4B1B680C46C3F302239A
:1012F000C3F10705042D00D90425191D072901D2C2
:10130000002300E0DB1E012606FA05F1491E2140FC
:1013100099409E40761E16403143F0BC06F0FEBA5E
:101320000CED00E0064900F0070208684FF6FF03E5
:10133000184040EA0220034A10430860704700004A
:101340000CED00E00000FA05BFF34F8F054801687F
:10135000054A01F4E06111430160BFF34F8F00BF04
:10136000FDE700000CED00E00400FA051649B0F5B9
:10137000007F0868C0F3412009D0022805D0086822
:1013800020F4C06040F480600860002070470128AD
:10139000FBD0086820F4C06040F4007008600B487F
:1013A0003222006850430A4AB0FBF2F0401C00E0D1
:1013B000401E4A69520501D50028F9D14869400507
:1013C000E3D50320704700000070004014000020A7
:1013D00040420F000248416841F48061416070471B
:1013E000007000400248006800F4C06070470000D0
:1013F00000700040F8B504460025FFF7DDFC064606
:1014000094F83900800736D5002084F83800206829
:10141000016849070BD5016821F004010160606B88
:10142000FFF758FB18B1E06B40F00400E063206860
:10143000016841F002010160206C009033460122F6
:101440000221204602F0C2FB050014D121680220CF
:10145000C860206C0090334600222021204602F014
:10146000B5FB050007D12068416921F04061416169
:10147000012084F839002846F8BD2DE9F84F1746B9
:101480008B460446FFF798FC824694F83800012802
:101490000ED0012684F8386094F839004FF0000827
:1014A000012807D0022584F83880284600F028B8A3
:1014B0000220FBE7C4F83C804FF0020984F8399021
:1014C0005346002220212046009702F07FFB0500B2
:1014D000E9D100225946204602F07BFADBF82400CD
:1014E00058B95346012202212046009702F06EFBB4
:1014F0000500D8D12168C1F80C9084F83960D2E792
:1015000018BCBDE8E08F0000F8B50446FFF754FCB6
:10151000064624B194F83900002510B109E00120F5
:10152000F8BD84F83850204600F03EF841F288308B
:10153000206420680168A2686FF0FF0321F47061E5
:1015400003EB022211430160206C0090334600221D
:101550002021204602F03AFBF0B921680A68104BBE
:101560001A40237942EA0362E3681A430A60D4E925
:1015700005121143226853680A4E3340268A43EA13
:1015800006431943516021680A6842F001020A606B
:10159000E563012184F8391084F83850F8BD000063
:1015A000EFFFFF00FEF8E0FF114800B5016D87B0C6
:1015B00041F480710165016D01F480710591C16C88
:1015C00041F01001C164C06C694600F01000059044
:1015D0004FF47C40009002200190002002900320F4
:1015E00003900A2004900348FFF7D2FA07B000BD29
:1015F00000100240001000482DE9F84F15460F4634
:101600000446FFF7D9FB82462068816994F83820A8
:1016100000F12009012A0DD0012684F8386094F8E1
:1016200039204FF00008012A06D0022084F83880C3
:1016300000F044B80220FBE7C4F83C80BFB322228C
:1016400084F839200269521C22630269521CE2624A
:10165000A762426922F0406242F0806242612068E3
:1016600081610EE00621204602F0B0FAE0B999F857
:101670000000A16A0870A06A401CA062206B401E96
:101680002063206B53464FF0010200950028E9D1FA
:101690004FF00201204602F099FA28B92168022091
:1016A000C8602046FFF7A6FE84F83960BEE7FFE772
:1016B000E06B40F00800E0630120B7E718BCBDE82C
:1016C000E08F00002DE9F84F15460F460446FFF75E
:1016D00073FB8246206894F8381000F12009012934
:1016E0000ED0012684F8386094F839104FF00008C5
:1016F000012907D05FF0020084F8388000F040B87C
:101700000220FBE7C4F83C809FB3122184F8391013
:101710000169491C61620169491C2162E7614169F3
:1017200021F0406141610EE00421204602F04EFAB2
:10173000E0B9E069017889F80010E069401CE061D7
:10174000606A401E6062606A53464FF00102009575
:101750000028E9D14FF00201204602F037FA28B9FB
:1017600021680220C8602046FFF744FE84F83960F3
:10177000C2E7FFE7E06B40F00800E0630120BBE751
:1017800018BCBDE8E08F00002DE9F84F04460027A3
:101790000088E54D3E46010504F1200B1DD5606E25
:1017A00078B1B0F5800F11D0B0F5000F04D0B0F5CE
:1017B000400F22D001270FE0E86840F48030E86055
:1017C0001BE00021201D02F025FA03E0002158460D
:1017D00002F0B6FA070010D03E462088C00426D595
:1017E000A06EC0B1B0F1807F1AD0B0F1007F0DD0F3
:1017F000B0F1407F19D0012718E0D5F88800616E5C
:1018000020F440000843C5F88800E6E7E86840F4A3
:101810008030E86009E00021201D02F0FBF903E0C0
:101820000021584602F08CFA0746F7B13E46206880
:1018300080033AD5A86D4FF00008C00009D4A86D08
:1018400040F08050A865A86D4FF0010800F080506E
:101850000090DFF8D8A2DAF8001041F48071CAF8DD
:101860000010FFF7A9FA814610E0D5F88800A16EB4
:1018700020F040700843C5F88800D8E7FFF79CFACD
:10188000A0EB0900022801D9032705E0DAF80000DF
:10189000C005F3D5002F7CD04FEA0706B8F1000F42
:1018A00003D0A86D20F08050A8652078C00707D02D
:1018B000D5F88800A16B20F003000843C5F8880024
:1018C0002078800707D5D5F88800E16B20F00C0060
:1018D0000843C5F888002078400707D5D5F8880068
:1018E000216C20F030000843C5F8880020780007FC
:1018F00007D5D5F88800616C20F0C0000843C5F812
:1019000088002078C00607D5D5F88800A16C20F49F
:1019100040700843C5F888002078800607D5D5F8C0
:101920008800E16C20F440600843C5F888002088F6
:10193000800507D5D5F88800E16D20F440200843E4
:10194000C5F888002088400507D5D5F88800216EA5
:1019500020F440100843C5F888002078400607D5D9
:10196000D5F88800216D20F440500843C5F8880060
:101970002078000607D5D5F88800616D20F4404036
:101980000843C5F888002088C00509D5D5F8880027
:1019900000E01CE0A16D20F440300843C5F8880049
:1019A00020884FF0006780044FF080684FD5D5F84D
:1019B0008800E16E20F040600843C5F88800E06EC2
:1019C000B8423CD1E86840F48010E8603FE0D5F8C8
:1019D000900010F4407015D0D4F88410814211D0DA
:1019E000D5F89000D5F8901020F4407041F4803183
:1019F000C5F89010D5F8901021F48031C5F89010FA
:101A0000C5F89000C00710D0FFF7D6F9074641F29D
:101A1000883906E0FFF7D0F9C11B494501D90326F3
:101A20003CE7D5F890008007F4D5D5F89000D4F8BD
:101A3000841020F440700843C5F890002EE740451C
:101A400005D10121201D02F0E5F800B1064620680D
:101A5000000317D5D5F88800216F20F040600843B7
:101A6000C5F88800206FB84204D1E86840F48010BF
:101A7000E86007E0404505D10121201D02F0CAF8C9
:101A800000B106462068400317D5D5F88800616F7D
:101A900020F040600843C5F88800606FB84204D168
:101AA000E86840F48010E86007E0404505D1012176
:101AB000201D02F0AFF800B10646208840041AD578
:101AC000D5F88800A16F20F040500843C5F8880081
:101AD000A06FB0F1805F03D0B0F1005F05D00AE0E5
:101AE0000221201D02F096F803E00221584602F080
:101AF00027F900B106462088000407D5D5F88800EC
:101B0000E16F20F080400843C5F888002068C003DA
:101B100007D555F8880FD4F8801020F0004008430E
:101B20002860304600F004B8001002400070004009
:101B300018BCBDE8E08F00002DE9F0470F46050016
:101B400058D0404E306800F00700B84209D23068E3
:101B500020F0070038433060306800F00700B842DA
:101B600048D12878384CC0072CD06868032811D099
:101B7000022812D0216898B1490500293ADAA168F3
:101B800021F003010143A160FFF716F9804641F2FD
:101B9000883910E021688901EFE721688903ECE7C3
:101BA0008907EAE7FFF708F9A0EB0801494502D9E0
:101BB0000320BDE8F087A068696800F00C00B0EB76
:101BC000810FEFD12878800705D5A068A96820F09B
:101BD000F0000843A060306800F00700B8420BD95D
:101BE000306820F0070038433060306800F00700AC
:101BF000B84201D00120DCE72878400705D5A0686D
:101C0000E96820F4E0600843A0602878000706D562
:101C1000A068296920F4605040EAC100A06000F08B
:101C20003FF8A168094AC1F30311515C01F01F019B
:101C3000C8400749086007480068BDE8F047FFF75B
:101C40000BBB00000020024000100240300B0108D6
:101C5000140000200C00002005480649006889682F
:101C6000054AC1F30221515C01F01F01C8407047D1
:101C70001400002000100240700B010805480649BE
:101C800000688968054AC1F3C221515C01F01F0157
:101C9000C84070471400002000100240700B01087B
:101CA00070B52549002318468A68CC6812F00C02EA
:101CB00004F00306214C4FEA640509D00C2A05D034
:101CC000042A32D0082A00D1284670BD012E10D136
:101CD0000B681B0704D4D1F89430C3F3032302E04C
:101CE0000B68C3F30313164E56F82330DAB10C2AEF
:101CF000EBD1C86800F00300022818D0032818D0E0
:101D00001846CA68CB68C2F30212C3F306234343E2
:101D1000521CB3FBF2F2C868C0F34160401C4000A3
:101D2000B2FBF0F070BD184670BD204670BD204675
:101D3000E7E72846E5E70000001002400024F40031
:101D4000400B01082DE9F84304006FD0FE4DA86850
:101D500000F00C06E86800F003072078C00664D5A0
:101D600076B10C2E01D1012F0AD0A0690028286875
:101D70007AD040F001002860FFF71EF880465DE051
:101D80002868800702D5A0690028DED0216A28686B
:101D9000000703D5286800F0F00004E0D5F89400AF
:101DA000F02202EA1010814216D9084602F04CF8DF
:101DB00000283BD1286840F0080028602868216A84
:101DC00020F0F000084328606868E16920F47F4053
:101DD00040EA0120686016E0286840F008002860AA
:101DE0002868216A20F0F000084328606868E169EB
:101DF00020F47F4040EA0120686026B9206A02F0A2
:101E000023F80028D5D1FFF74BFFA968CF4AC1F3CB
:101E10000311515C01F01F01C840CD490860CD4855
:101E20000068FFF719FA00287ED12EE0CAE000BF53
:101E3000FEF7C2FFA0EB0800022876D828688007CA
:101E4000F6D5286840F0080028602868216A20F04C
:101E5000F000084328606868E16920F47F4040EAA8
:101E60000120686011E0FFE720F001002860FEF724
:101E7000A3FF804606E000BFFEF79EFFA0EB080030
:101E80000228DAD828688007F6D42078C00740D026
:101E9000082E18D00C2E01D1032F14D06068B0F595
:101EA000803F17D0B0F5A02F286817D020F48030DD
:101EB0002860286820F4802028606068E0B1FEF780
:101EC0007BFF804614E02868800322D560680028E4
:101ED00078D01EE0286840F48030EDE740F48020A0
:101EE0002860F7E7FEF768FFA0EB08006428A4D895
:101EF00028688003F6D50CE0FEF75EFF804605E01B
:101F0000FEF75AFFA0EB0800642896D828688003E3
:101F1000F6D4207880073BD5042E11D00C2E01D1A9
:101F2000022F0DD0E06801E092E1F1E0002828687E
:101F30001ED040F480702860FEF73EFF07460CE09C
:101F4000286840050CD5E0680028C1D008E000BF33
:101F5000FEF732FFC01B022893D828684005F7D54A
:101F60006868217C20F0F85040EA016068600FE06A
:101F700020F480702860FEF71FFF074605E000BFD1
:101F8000FEF71AFFC01B0228B1D828684005F7D415
:101F90002078000729D560690028D5F8940012D070
:101FA00040F00100C5F89400FEF706FF074604E084
:101FB000FEF702FFC01B022899D8D5F894008007CD
:101FC000F6D512E000E120F00100C5F89400FEF71C
:101FD000F3FE074605E000BFFEF7EEFEC01B022839
:101FE00085D8D5F894008007F6D42078400766D5C8
:101FF000A86D0027C00008D4A86D40F08050A865E7
:10200000A86D012700F08050009053480168C90571
:1020100012D40168814641F480710160FEF7CCFE64
:10202000804605E0FEF7C8FEA0EB080002286FD846
:10203000D9F80000C005F5D5A068012816D00528FC
:10204000D5F8900017D020F00100C5F89000D5F821
:10205000900020F0040000BFC5F89000A06841F295
:102060008839C0B1FEF7A8FE80460FE0D5F8900091
:1020700040F00100F0E740F00400C5F89000F5E7FB
:10208000FEF79AFEA0EB0801494541D8D5F890002B
:102090008007F5D50EE0FEF78FFE804606E000BF14
:1020A000FEF78AFEA0EB0801494531D8D5F890002B
:1020B0008007F5D41FB1A86D20F08050A865A06AF4
:1020C00038B302280AD00C2E7ED0286820F0807009
:1020D0002860286810F0205F77D0AAE0E868E26AFC
:1020E00000F0030191422BD1216B00F07002090135
:1020F0001039914224D1626B00F4FE41B1EB022F02
:102100001ED1A26B00F40031072A03D0012202E0A5
:102110009DE089E00022914212D1A18F00F4C0021B
:1021200049084905A1F50011914209D194F84010E0
:1021300000F0C06049084906A1F1007181425CD0FD
:102140000C2E41D0286809E000100240300B010835
:10215000140000200C0000200070004040017ED4DC
:102160002868C0007BD4286820F080702860FEF7C3
:1021700023FE064605E000BFFEF71EFE801B022878
:1021800065D828688001F7D4D4E90B016FF00F02FD
:1021900002EB01110843A18F5204490802EB41519F
:1021A000626B41EA0221084394F840104FF07E42EE
:1021B000490802EB41610843A16B090940EA41402B
:1021C000E968284A114001E049E02EE00843E86050
:1021D000286840F080702860E86840F08070E8600F
:1021E000FEF7EAFD044604E0FEF7E6FD001B0228C8
:1021F0002DD828688001F7D52FE0286880012CD4DD
:10220000286840F080702860E86840F08070E860DE
:10221000FEF7D2FD044604E0FEF7CEFD001B0228C7
:1022200015D828688001F7D517E0E86820F003008A
:10223000E860E8680C490840E860FEF7BDFD044628
:1022400008E000BFFEF7B8FD001B022802D90320FA
:10225000BDE8F88328688001F4D40020F8E7012065
:10226000F6E700008C809DF9FFFFEEFE70B50400DC
:1022700009D0606A002540B125616561A56294F8C6
:102280005D0040B10CE0012070BD6068B0F5827F58
:10229000F4D0E561F2E784F85C50204600F056F88F
:1022A000022084F85D002068016821F0400101608F
:1022B000E1684FF4E062914201D9002001E04FF45F
:1022C0008050B1F5706F02D0914200D0A562A18814
:1022D000228901F4827102F404421143227C02F04B
:1022E00002021143227D02F001021143228B02F40B
:1022F00000721143227F02F03802114394F820202B
:1023000002F080021143228D02F400521143226830
:102310001160A169042202EA114194F8242000F41A
:10232000805002F01002114394F8342002F00802A9
:102330001143A28902F47062114301432068416095
:102340002566012084F85D00002070BD2DE9F04174
:10235000054600682149224C0226012786B04FF02D
:102360000308884219D1E06C40F00100E064E06CA1
:1023700000F001000590206E40F480502066206E31
:10238000694600F480500590E0208DE8C1010520E9
:1023900004904FF09040FEF7FBFB124928688842FA
:1023A00018D1E06C40F00200E064E06C00F0020044
:1023B0000590A06D40F40040A065A06D694600F452
:1023C0000040059028208DE8C101062004900648B1
:1023D000FEF7DEFB06B0BDE8F081000000300140F2
:1023E00000100240003C0040000400482DE9F84F76
:1023F000044690F85C0000271D46164689460128D1
:102400000DD04FF0010B84F85CB0FEF7D5FC804690
:1024100094F85D00BA46012804D00227A4E0022007
:1024200000F0A8B8B9F1000F74D0002E72D00320CC
:1024300084F85D00C4F860A0C4F83890A687E687E9
:10244000C4F840A0A4F844A0A4F846A0C4F850A042
:10245000C4F84CA0A068B0F5004F09D1206801680D
:1024600021F0400101602068016841F48041016071
:1024700020680168490603D4016841F04001016009
:10248000E068B0F5E06F606823D908B1012E1CD177
:10249000A06B21680088C86006E020688168890711
:1024A00009D5A16B0988C160A06B801CA063E08F77
:1024B000401EE08709E0FEF77FFCA0EB0800A84281
:1024C00002D3681C01D046E0ADB3E08F0028E4D110
:1024D00036E008B1012E30D1E08F0128A06B03D97E
:1024E00021680088C8600FE021680078087314E054
:1024F000E08722E020688168890714D5E18F0129EF
:10250000A16B08D90988C160A06B801CA063E08F13
:10251000801EEDE727E009780173A06B401CA063E3
:10252000E08F401EE4E7FEF747FCA0EB0800A8425E
:1025300002D3681C01D00EE06DB1E08F0028D9D124
:1025400042462946204602F0E3F908B120202066E1
:10255000A06810B105E0032706E02068C168806824
:102560000090206E00B1012784F85DB084F85CA073
:10257000384655E718BCBDE8E08F2DE9F05F04460A
:1025800090F85C0000270A9E1D4692468B464FF04D
:10259000010901280ED0012084F85C00FEF70CFC34
:1025A000804694F85D00616801280CD0B1F5827F07
:1025B00007D102E0022000F011B9A16809B904288E
:1025C00001D0022700E1BBF1000F24D0BAF1000FC7
:1025D00021D005B394F85D00042802D0052084F8CA
:1025E0005D0000202066C4F840A0A4F84650A4F87E
:1025F0004450C4F838B0E587A587E0642065E068FA
:102600004FF4E061884201D8012D06D92068426864
:1026100022F4805205E00127D6E02068426842F4A7
:102620008052426020680268520603D4026842F079
:1026300040020260E0688842606845D908B1012D17
:102640003AD1A06B21680088C860A06B801CA06391
:10265000E08F401EE0872FE02068816889070FD552
:10266000E18F69B1B9F1010F0AD1A16B0988C1608D
:10267000A06B801CA063E08F401EE0874FF0000934
:1026800020688168C9070FD0B4F8461061B1C068EE
:10269000216C0880206C801C2064B4F84600401E29
:1026A000A4F846004FF00109FEF786FBA0EB0800F6
:1026B000B04201D3701C75D1E08F0028CCD1B4F8A2
:1026C00046000028C8D176E008B1012D6CD1E08F1A
:1026D0000128A06B08D921680088C860A06B801C05
:1026E000A063E08F801E07E0216800780873A06B6C
:1026F000401CA063E08F401EE08755E020688168A1
:1027000089071AD5E18FC1B1B9F1010F15D1E18F58
:102710000129A16B07D90988C160A06B801CA06347
:10272000E08F801E06E009780173A06B401CA06357
:10273000E08F401EE0874FF0000920688168C907DC
:1027400028D0B4F8461029B3B4F84610012914D99A
:10275000C068216C0880206C801C2064B4F846009E
:10276000801EA4F84600B4F84600012810D820685E
:10277000416841F4805141600AE0007B216C08709F
:10278000206C401C2064B4F84600401EA4F84600AB
:102790004FF00109FEF710FBA0EB0800B04202D396
:1027A000701C01D018E0BEB1E08F0028A6D1B4F8AB
:1027B00046000028A2D142463146204602F0A8F841
:1027C00010B1012720202066012084F85D00002040
:1027D00084F85C003846EEE60327F5E730BCBDE838
:1027E000C09F4FF0E0210428086903D020F00400C6
:1027F0000861704740F00400FAE710B5401EB0F1E0
:10280000807F01D3012010BD4FF0E02460610F21D3
:10281000601705F083F80020A061072020610020E8
:1028200010BD7047704770472DE9F04102680446BB
:10283000D0691168936840F60F0528424FF00005F3
:1028400005D186067ED58E067CD5616E1BE1994F3B
:1028500003F001060F40374374D0C70709D0CF05F6
:1028600007D501271762D4F8802042F00102C4F88E
:10287000802082070AD5DA0708D0276802223A6248
:10288000D4F8802042F00402C4F8802042070AD520
:10289000DA0708D0236804221A62D4F8802042F0B4
:1028A0000202C4F8802002070CD501F02002324356
:1028B00008D0236808221A62D4F8802042F0080267
:1028C000C4F8802002050BD54A0109D523684FF4CE
:1028D00000621A62D4F8802042F02002C4F88020FE
:1028E000D4F88020002A35D0800605D5880603D587
:1028F000616E09B120468847D4F880002168896854
:10290000490602D410F0280F26D0204602F032FAF1
:102910002068806840061AD52068083050E8001FFB
:1029200021F0400140E80012002AF5D1206F70B17B
:1029300061498163206FFEF7F2F800280AD0206F0A
:10294000816B01E00EE02046BDE8F04108472046DB
:10295000FFF769FFBDE8F0812046FFF764FFC4F888
:102960008050F7E7276E2026012F7BD1C70679D547
:10297000CF0677D51020106220688068400641D5C8
:10298000216F086840680004000CE3D0B4F85820B8
:102990008242DFD9A4F85A000868006880062AD469
:1029A000206850E8001F21F4807140E80012002ADE
:1029B000F6D12068083050E8001F21F0010140E8FE
:1029C0000012002AF5D12068083050E8001F21F0DD
:1029D000400140E80012002AF5D1E667256621682B
:1029E00051E8000F20F0100041E80002002AF6D163
:1029F000206FFEF76FF8B4F85800B4F85A10401A78
:102A000081B22AE0B4F85800B4F85A10401A81B2E2
:102A1000B4F85A0000289DD000299BD0226852E8C3
:102A2000000F20F4907042E80003002BF6D12068DC
:102A3000083050E8002F22F0010240E80023002B6C
:102A4000F5D1E66725666566226852E8000F20F03A
:102A5000100042E80003002BF6D12046FFF7E1FE0C
:102A600078E7FFE7C70209D55B0207D54FF480106E
:102A700010622046BDE8F041FFF7D4BE020606D53D
:102A80000A0604D5A16E00297FF45DAF62E7400617
:102A9000E6D54806E4D52046026852E8001F21F03A
:102AA000400142E80013002BF6D18667856600F0EE
:102AB00020F94FE720010004614D000810B5040023
:102AC00002D0A06F10B107E0012010BD002084F8F3
:102AD0007400204600F026F82420A06720680168D2
:102AE00021F001010160204602F008FA0128ECD033
:102AF000606A10B1204602F0A1F82068416821F414
:102B0000904141602068816821F02A01816020683D
:102B1000016841F0010101602046BDE8104002F06B
:102B2000F1B8000010B5A8B00446142122A8FDF7A2
:102B300098FB88216846FDF794FB1C492068884271
:102B400031D10120002400900E946846FEF71CFE4F
:102B500008B1FDF796FF1648016E41F48041016609
:102B6000016E01F480412791C16C41F00101C16403
:102B7000C06C22A900F0010027904FF4C0602290A1
:102B80000220CDE9230403202590072026904FF052
:102B90009040FDF7FDFF032211462520FEF7A2FB22
:102BA0002520FEF791FB28B010BD00000038014041
:102BB0000010024030B4C36F202B20D1E1B1DAB154
:102BC00090F87430012B1AD0012380F87430002360
:102BD00003660C4C0368A3420BD05B681B0208D54C
:102BE000046854E8003F43F0806344E80035002D5A
:102BF000F6D130BC02F0A6BA012030BC70470220EA
:102C0000FBE700000080004010B5006807498842DB
:102C10000BD10748017807480CF002FABDE81040D4
:102C2000012203490448FFF7C5BF10BD0038014029
:102C3000840600201C550020B40600202DE9F8432E
:102C40000446806F1F4616460D4620284FD1CDB151
:102C5000C6B194F87400012849D0012084F87400AA
:102C60004FF00008C4F880802120A067FEF7A4F888
:102C7000A4F850608146A4F85260A068B0F5805F67
:102C800003D004E00120BDE8F883206928B12E4676
:102C90005FF0000584F8748010E00026FAE78021D8
:102CA000204602F0ABFAB8B9C6B116F8010B21689C
:102CB0000885B4F85200401EA4F85200B4F852003F
:102CC0004B464FF0000200970028E8D14FF040013A
:102CD000204602F093FA30B10320D4E735F8020B16
:102CE000C0F30800E3E72020A0670020CBE7022024
:102CF000C9E770472DE9F047074600680C4600EB2E
:102D00004116D6F8080501EB4103420703EBC40165
:102D10004FF006004FF004084FF0050A07EB81055D
:102D200001D541463CE0D6F80815C90507D54FF452
:102D30008070C6F80805072085F861001CE0D6F809
:102D40000815890603D52020C6F8080518E0D6F82E
:102D500008150A074FF0080104D5C6F8081585F8CC
:102D600061A009E0D6F80825520514D54FF480601B
:102D7000C6F8080585F861102146386804F0E7F9BF
:102D8000D6F8080580050ED52146386804F0DFF92D
:102D90004FF400709EE0D6F808150906F0D58021A2
:102DA000C6F80815C8E7D6F808054FF00001C007B7
:102DB0004FF010094FF001023BD085F86120E96522
:102DC000C6F8082595F83F0030B1022804D0032842
:102DD00009D0012810D01BE02146386804F0B7F96B
:102DE000C6F8089514E0D6F8000540F00050C6F883
:102DF000000585F8602007E085F8602095F854000C
:102E000080F0010085F8540021463846FEF749F865
:102E10003869012806D1B5F84010A86CB0FBF1F074
:102E2000C00704D015F8540F80F001002870BDE8E9
:102E3000F087D6F80805800735D595F8610002239C
:102E400001280AD005280BD006280CD008280AD063
:102E500003280FD0072818D01CE085F8602019E05F
:102E600085F860A016E0E86D401CE865022801D9ED
:102E7000E9650DE085F86030D6F8000520F0804067
:102E800040F00040C6F8000504E0E86D401CE8652D
:102E900085F86080C6F8083595F8602021463846E8
:102EA000FDF7FFFFC3E7D6F80805C006BFD595F8C4
:102EB0003F00032803D020B1022802D009E0E965D1
:102EC00003E00320E96585F861002146386804F0D5
:102ED0003EF94846C6F80805A9E72DE9F04702681B
:102EE00002EB4114D4F808254FF00407530701EB17
:102EF000410202EBC1024FF0060A00EB820204D548
:102F0000C4F8087582F861A051E0D4F808354FF094
:102F100000069B064FF0020C0BD52023C4F80835A1
:102F200092F83D30012B33D182F83D6082F860C0C9
:102F30003DE0D4F808359B0504D54FF40072C4F881
:102F4000082534E0D4F808354FF040055FEAC3782F
:102F50004FF001030DD0D665D4F80865760603D589
:102F600082F83D30C4F80855C4F8083582F861305D
:102F70001DE0D4F808855FEA48680BD582F86170D7
:102F800082F83D30D665006804F0E1F8C4F80855D1
:102F9000BDE8F087D4F808554FF008095FEA0578D6
:102FA0004FF0050508D5C4F8089582F8615000680F
:102FB000BDE8F04704F0CBB8D4F808855FEAC868EC
:102FC00008D50323D66582F86130006804F0BFF8A5
:102FD00010200AE0D4F808855FEA086808D582F86E
:102FE00061A0006804F0B3F88020C4F80805CFE7BA
:102FF000D4F808855FEA485807D582F861900068E0
:1030000004F0A5F84FF48060EFE7D4F808855FEA94
:103010008878BDD592F86180B8F1010F0FD0B8F172
:10302000030F30D0B8F1040F2DD0B8F1050F2DD01B
:10303000B8F1060F2DD0B8F1080F2AD03CE082F885
:10304000603092F83F30022B01D0032B34D103695A
:103050002BB992F8553083F0010382F8553003699B
:10306000012B29D1D36C3BB3B2F840502B445B1EEB
:10307000B3FBF5F3DB071FD092F8553083F0010363
:1030800082F8553018E082F860C015E082F8605090
:1030900012E0D36D5B1CD365022B03D9D66582F891
:1030A000607009E082F860C0D4F8003523F08043F6
:1030B00043F00043C4F80035C4F808C592F8602016
:1030C000FDF7EFFE64E77CB504680546D4F84004DC
:1030D0000190D4F8400420F02E0000900198800761
:1030E00009D50198C00702D02846FDF76BFE00986D
:1030F00040F0020000900198000724D5009840F0AD
:1031000008000090019840071AD5A869022803D04A
:10311000E86801280CD00FE00198C0F34140022874
:10312000286803D0012104F0B3F905E00221FAE791
:103130004EF66020C4F804042846FEF741F802E089
:103140002846FEF739F801988006009802D540F02D
:1031500020000090C4F840047CBD2DE9F0410246F7
:1031600000680646016AC1F3434301F00F07C1F34B
:103170000A15022B31D1002D2FD007EB470101EBAF
:10318000C70102EB8104616C002926D0226DE36C3B
:103190002A449A4223D82A4604F099F9606C2844BC
:1031A0006064206D2844206506EB4710D0F81015A8
:1031B000B4F84020C1F3C941AA420ED100290CD075
:1031C000D0F8001521F0804141F00041C0F8001511
:1031D00014F8540F80F001002070BDE8F081042045
:1031E00084F86000F9E7FEE72DE9F04107461C4648
:1031F00015460E462A2000F08FF9380A00F09AF999
:10320000F8B200F097F9280A00F094F9E8B200F05B
:1032100091F92B2000F080F9300A00F08BF9F0B220
:1032200000F088F9200A00F085F9E0B200F082F998
:10323000BDE8F0412C2000F06FB9000070B5040A21
:10324000C5B2EF2300211A460846FFF7CDFF0F490C
:1032500000204FF4107200BF01F8104001EB400352
:10326000401C80B25D709042F6D3012210210848C4
:10327000FDF79DFD00244FF490652946034800F0BA
:103280002BF9641CA4B2642CF7D370BD380700205E
:103290000004004830B5254887B0C16C41F00201F8
:1032A000C164C16C01F002010591C16C41F00801DB
:1032B000C164C06C1E4C00F008000590D020009046
:1032C0000120019002900220039069462046FDF7FC
:1032D0005FFC0022D0212046FDF769FD8020154DBE
:1032E000009069462846FDF753FC002280212846BD
:1032F000FDF75DFD002280212846FDF758FD0022E4
:1033000080212046FDF753FD002240212046FDF795
:103310004EFD782005F0E2FE012240212046FDF717
:1033200046FD01F0C5FA07B030BD000000100240B4
:1033300000040048000C004810B5FFF7ABFF7820F0
:1033400005F0CCFE112000F0E7F8782005F0C6FE6D
:10335000362000F0E1F8002000F0ECF83A2000F010
:10336000DBF8652000F0E6F8B22000F0D5F80C207C
:1033700000F0E0F80C2000F0DDF8002000F0DAF8B2
:10338000332000F0D7F8332000F0D4F8B72000F055
:10339000C3F8722000F0CEF8BB2000F0BDF83D204D
:1033A00000F0C8F8C02000F0B7F82C2000F0C2F8F8
:1033B000C22000F0B1F8012000F0BCF8C32000F0FA
:1033C000ABF8192000F0B6F8C42000F0A5F82020D2
:1033D00000F0B0F8C62000F09FF80F2000F0AAF827
:1033E000D02000F099F8A42000F0A4F8A12000F06B
:1033F000A1F8E02000F090F8D02000F09BF8042025
:1034000000F098F80D2000F095F8112000F092F8E7
:10341000132000F08FF82B2000F08CF83F2000F0F4
:1034200089F8542000F086F84C2000F083F818202A
:1034300000F080F80D2000F07DF80B2000F07AF805
:103440001F2000F077F8232000F074F8E12000F04E
:1034500063F8D02000F06EF8042000F06BF80C2028
:1034600000F068F8112000F065F8132000F062F811
:103470002C2000F05FF83F2000F05CF8442000F0C2
:1034800059F8512000F056F82F2000F053F81F2073
:1034900000F050F81F2000F04DF8202000F04AF80E
:1034A000232000F047F8212000F036F8292000F012
:1034B00033F8EF2300211A460846FFF795FE4FF632
:1034C000FF70FFF7BBFE0122BDE8104080210148DC
:1034D000FDF76DBC000400482DE9F0414FF6FF7583
:1034E000B1FBF5F70E468046002411E008D1B6FB8B
:1034F000F5F005FB1061C4EB044202EB080004E0A8
:10350000C4EB044101EB0800294601F0F7F9641C03
:10351000BC42EBD9BDE8F08101B50022102104487E
:10352000FDF745FC01216846FFF7D6FF08BD000006
:103530000004004801B5012210210448FDF737FCC2
:1035400001216846FFF7C8FF08BD000000040048DD
:1035500010B5AAB0302267A11CA8FCF769FE64214F
:1035600003A8FCF77EFE6F4A6FA1F3208DE80700E9
:10357000714B72A276A1042007F0F4F90122694987
:10358000764807F09DFF18B1FDF77BFA2AB010BD11
:103590000B2273A1754807F0C7FF18B174A14FF44F
:1035A000807016E077A14FF48370CDE90001624B83
:1035B00062A267A1042007F0D5F928AB2F221CA92D
:1035C0006A4808F0CDF9289901B168B173A14FF4A8
:1035D0008670CDE90001584B58A25DA1042007F088
:1035E000C1F9FDF74EFA3CE071A14FF48970CDE9C5
:1035F0000001514B51A256A1042007F0B3F900215C
:103600005A4807F017FE29AB642203A9574808F06F
:1036100093F8044603AA6CA140F215108DE8070048
:10362000454B46A24AA1042007F09CF96CA04FF438
:103630008B71CDE90010404B40A2029444A10420BC
:1036400007F090F9494807F0E0FD6EA140F2191229
:10365000CDE900210290384B38A23DA1042007F0AB
:1036600081F90B2270A1414807F05EFF90B171A172
:103670004FF49072CDE9002102902F4B2FA234A17C
:10368000012007F06FF9394807F0BFFD5DA14FF445
:10369000917219E028AB2F221CA9344808F060F978
:1036A00000281BD06CA140F22D12CDE90021029020
:1036B000214B22A226A1012007F054F92B4807F044
:1036C000A4FD50A14FF49872CDE9002102901A4B4D
:1036D0001AA21FA1042007F045F957E735A140F2CF
:1036E0002910CDE90001144B14A219A1042007F000
:1036F00039F9E3E7546865207369746520697320BC
:1037000053544D3332637562652E636F6D20776F4E
:10371000726B696E672077697468204661744673BE
:10372000000000001A0000205553424850617468A0
:103730002069733A20257300AD0901082E2E2F430E
:103740006F72652F5372632F6D61696E2E63000077
:103750006170705F6D61696E00000000C40C002034
:10376000303A61612E54585400000000F40E0020DD
:1037700055534220665F6F70656E206973206661E5
:10378000696C000055534220665F6F70656E20695A
:103790007320737563636573730000005553422093
:1037A000665F7772697465206973206661696C0071
:1037B00055534220665F7772697465206973207380
:1037C0007563636573730000665F72656164206989
:1037D000732072746578742069733A202573000031
:1037E000665F72656164206973206661696C20653B
:1037F00072726F7220636F64652069733A2025646A
:1038000000000000665F636C6F736520697320665B
:1038100061696C206572726F7220636F64652069E4
:10382000733A202564000000303A62622E545854E6
:1038300000000000665F6F70656E2069732066612E
:10384000696C206572726F7220636F6465206973A2
:103850003A20256400000000665F77726974652075
:103860006973206661696C206572726F7220636F84
:1038700064652069733A202564000000002804D0A4
:10388000012280210248FDF792BA0022F9E70000E8
:103890000010004810B506490648FDF7F4F8064C3C
:1038A0002070A11D0548FDF7EEF8607010BD000006
:1038B0001A000020780B0108180000208C0B01086A
:1038C00010B586B014216846FCF7CBFC1948C16CD2
:1038D00041F08001C164C16C01F080010591C16CAF
:1038E00041F01001C164C16C01F010010591C16C7F
:1038F00041F00101C164C06C0F4C00F00100059063
:1039000000224FF4C0712046FDF751FA0122510206
:103910002046FDF74CFA4FF460700121CDE900011B
:103920000220CDE9021069462046FDF731F906B0C4
:1039300010BD000000100240001000480C4810B5F7
:103940000A4901604FF4E1314160002181600C229D
:10395000C160C0E904128161C16101624162FFF787
:10396000ADF8002801D072B6FEE710BD0038014066
:10397000B406002010B501220B490C4802F020F8D3
:1039800008B1FDF77EF80A49084803F04FFA08B17C
:10399000FDF777F8054803F08FFA002803D0BDE85B
:1039A0001040FDF76EB810BDD16E000884150020E0
:1039B00030000020014803F001B900008415002008
:1039C000FEE7FEE70148FDF7B9BA00005C190020E8
:1039D0007047F0B54B6A4FF040652BB1AA4203D057
:1039E0008B6A04685B1E23618C690B6A002C57D0BC
:1039F0005BB304688B68E361CC69B4B1D1E90B3681
:103A000033434F6A4E6B3E4333438E8A43EA8643C9
:103A10000E6933430E6A3343CE68334323438C69C4
:103A200024E0006849688161F0BDD1E90B3423438B
:103A30004D6A4C6B2C4323438C8A43EA84430C69C4
:103A400023430C6A23438C6923E0CE69BEB1D1E9DC
:103A50000B373B43D1F824C04F6B47EA0C073B437D
:103A60008F8A43EA8743CF683B43334323430C6841
:103A70002343046813436361AA42D2D1F0BDD1E964
:103A80000B352B434E6A4D6B35432B438D8A43EAEE
:103A900085430968234300680B4313434361F0BD2A
:103AA0003BB304688B68E361CC6994B1D1E90B3610
:103AB00033434F6A4E6B3E4333438E8A43EA864319
:103AC0000E6933430E6A3343CE68334323438C6914
:103AD000CEE7D1E90B3423434D6A4C6B2C4323438F
:103AE0008C8A43EA84430C6923430C6A8969234323
:103AF000D1E7CC6964B1D1E90B3633434F6A4E6BE1
:103B00003E4333438E8A43EA8643CE683343AFE76E
:103B10004B6A002BC3D0D1E90B452C434D6B898AEE
:103B20001D432C43006844EA814111434161F0BDCB
:103B30000E4810B50C49016000210422C0E90112B1
:103B40001022C260120592FAA2F2B2FA82F2521E5A
:103B500002614FF44072C0E90521FDF7D5FC002851
:103B600000D0012010BD0000001000A0B80B002004
:103B7000074A10B51268491E1161014641F28832A8
:103B80000348FDF739FD002800D0012010BD0000DA
:103B9000B80B002070B58EB00DF1480C9CE8700099
:103BA000CDE900010395002009960D90CDE907406D
:103BB0000B900C90CDE9052341F28832694602480A
:103BC000FDF75BFC0EB070BDB80B00202DE9F04195
:103BD000984616460F460446069D08E0681C06D027
:103BE000FDF7EAF8A0EB0800A8420AD84DB120681A
:103BF0008068384000D00120B042EFD10020BDE8FD
:103C0000F081042084F83900E06B40F00100E063AB
:103C10000120F4E72DE9F041444C05468846E06870
:103C20000026810728680DD0E16801F00301814278
:103C300016D1A8B1E0686968C0F30210401C884240
:103C40000ED120E0012804D0022805D0032807D196
:103C500008E02168890701E021684905002907DBA0
:103C600001265FE02168890302D421684903F5E752
:103C7000E1686A686FF00F0321F0730103EB021231
:103C800011430143E160206820F080602060FDF76F
:103C900093F8074605E000BFFDF78EF8C01B022829
:103CA00037D820680001F7D4B8F1000F18D0B8F168
:103CB000010F1ED0287D4FF07E41400801EB40608F
:103CC000A96840EA01202169194A1140084320618E
:103CD000206840F080602060FDF76EF807461AE02B
:103CE000A868E9680002090940EA41402169114ACF
:103CF000EBE7288A1049400801EB4050A96840EAE8
:103D0000012021690D4AE0E7FDF756F8C01B0228A3
:103D100001D9032606E020680001F5D52069A969CC
:103D2000084320613046BDE8F081000000100240E9
:103D3000FF80FFF9FF80FDFF0000E0FFFF809FFF95
:103D40002DE9F0413D4C06468846E0680025810794
:103D500030680DD0E16801F00301814216D1A8B1AD
:103D6000E0687168C0F30210401C88420ED120E068
:103D7000012804D0022805D0032807D108E02168D3
:103D8000890701E021684905002907DB012551E089
:103D90002168890302D421684903F5E7E168726864
:103DA0006FF00F0321F0730103EB02121143014383
:103DB000E160206820F080502060FCF7FDFF07469E
:103DC00005E000BFFCF7F8FFC01B022829D82068D7
:103DD0008000F7D4B8F1000F15D0307C4FF07E4151
:103DE000400801EB4060B16840EA01206169144A73
:103DF000114008436061206840F080502060FCF76B
:103E0000DBFF07460FE0B068F1680002090940EAED
:103E1000414061690B4AEBE7FCF7CEFFC01B02286B
:103E200001D9032506E020688000F5D56069716935
:103E3000084360612846BDE8F081000000100240A0
:103E4000FF80FFF9FF80FDFFF8B51C4D06460024FA
:103E5000A86DC00002D5FDF7C5FA0DE0A86D40F0D1
:103E60008050A865A86D00F080500090FDF7BAFA68
:103E7000A96D21F08051A965B0F5007F04D0802E96
:103E800007D94FF003040AE0802E08D9A02E01D8EC
:103E900004E001D1022402E0702E00D10124084880
:103EA000016821F0070121430160006800F007006C
:103EB000A04201D00120F8BD0020F8BD0010024052
:103EC0000020024000F0B4B870B514460025002967
:103ED00006D0012906D0022908D003290AD00425DA
:103EE000284670BD00F06DF82060F9E74FF40070CF
:103EF0002060F5E708202080F2E770B50D461646F1
:103F00001C46E2B23146284600F03EFB002808D0AD
:103F100000F08EF8E2B23146284600F035FB00286A
:103F2000F6D170BD0020704770B50D4616461C4690
:103F3000E2B23146284600F01BFC002808D000F011
:103F400077F8E2B23146284600F012FC0028F6D19C
:103F500070BD000010B5012208210448FCF727FFBE
:103F6000BDE81040FF2000F06DBC000000080048D4
:103F700070B5054601220021092000F0B9FB0400BC
:103F800004D11021284600F035FB0446FFF7E2FF7C
:103F90000CB1012070BD002070BD70B505464FF614
:103FA000FF7401E0641EA4B2FF2000F067FBA8428A
:103FB00002D0002CF6D102E00CB1002070BDFF2031
:103FC00070BD1FB56846FFF7D3FF10B1002004B0E5
:103FD00010BD9DF800100120B0EB911F09D19DF894
:103FE00008209DF8091000EB022008440004800915
:103FF000EDE79DF805009DF80A1000F00F0000EBBA
:10400000D1109DF809109DF8072001F0030100EB85
:1040100041019DF80800800900EB82009DF8062010
:1040200002F0030200EB8220401CC91F8840CEE74B
:104030002DE9F84300F0F8FA382000F013FC0024D2
:10404000FF2000F0FFFB641CA4B20A2CF8D3142458
:1040500000219522084600F04BFB0546012802D0BE
:10406000641EA4B2F4D2474E0027012D37707AD1D6
:1040700087224FF4D571082000F03AFB4FF6FE7806
:1040800001281ED001220021372000F031FB01223F
:104090000021292000F02CFB01284FD8022030708D
:1040A000444601220021372000F022FB012200219A
:1040B000292000F01DFB05004DD0641EA4B2F0D2F3
:1040C00049E000246F46FF2000F0D8FA3855641C00
:1040D000A4B2042CF7D39DF80200012843D19DF827
:1040E0000300AA283FD144464FF080480122002116
:1040F000372000F0FDFA01224146292000F0F8FAAD
:10410000050002D0641EA4B2F0D2B4B10122002195
:104110003A2000F0EDFA80B90024FF2000F0AEFA5A
:104120003855641CA4B2042CF7D39DF80000400657
:1041300001D5062000E00420307014E0012030702A
:10414000444601220021104600F0D2FA050002D0B8
:10415000641EA4B2F5D22CB101225102102000F04D
:10416000C7FA00B13770FFF7F5FE002000F07AFBC8
:10417000307810B10020BDE8F8830DB12846FAE789
:10418000AA20F8E70600002030B5ABB030227EA1AF
:104190001DA8FCF74DF8642104A8FCF762F8864AD4
:1041A00086A1A6208DE80700884B89A28DA1042056
:1041B00006F0D8FB012280498D4807F081F938B11B
:1041C0008CA1AA22CDE90021804B029080A2A3E01D
:1041D00093A1B020CDE900017C4B7DA281A10420F8
:1041E00006F0C0FB0B2295A1974807F09DF9044605
:1041F00096A0B321CDE90010744B75A2029479A169
:10420000042006F0AFFB04AD3CB197A0B621CDE988
:1042100000106E4B6EA2029419E09CA1BC20CDE967
:1042200000016A4B6AA26FA1042006F09BFB29AB38
:104230002F221DA9844807F093FB299901B168B189
:1042400099A1C122CDE90021604B029060A265A135
:10425000042006F087FBFCF714FC3AE09BA2C7237E
:10426000CDE90032CDE90201584B59A25DA10420ED
:1042700006F078FB0021744806F0DCFF2AAB6422CC
:1042800004A9714807F058FA04469FA0CB21CDE954
:1042900000104E4B4EA2029552A1042006F062FB84
:1042A0009FA0CC21CDE90010484B49A202944DA11A
:1042B000042006F057FB644806F0A7FFA1A1CF2217
:1042C000CDE900210290414B41A246A1042006F015
:1042D00049FBA5A1D320CDE900013C4B3CA241A163
:1042E000042006F03FFB012254A1574807F01CF9B7
:1042F000044656A0D621CDE90010344B34A20294D6
:1043000038A1042006F02EFB74B157A0D921CDE9C5
:1043100000102E4B2EA2029432A1042006F022FBA4
:10432000FCF7AFFB2BB030BD0021474806F082FF01
:104330002AAB642204A9444807F0FEF9044672A09F
:10434000E121CDE90010214B21A2029525A10420F5
:1043500006F008FB72A0E221CDE900101B4B1CA265
:10436000029420A1042006F0FDFA374806F04DFF24
:1043700074A1E522CDE900210290144B14A219A1E9
:10438000042006F0EFFACDE7546865207369746580
:104390002069732053544D3332637562652E636F09
:1043A0006D20776F726B696E67207769746820463D
:1043B00061744673000000001E00002053445061E9
:1043C00074682069733A202573000000A40901086D
:1043D0002E2E2F436F72652F5372632F6D61696E9E
:1043E0002E6300006170705F6D61696E00000000F7
:1043F0002411002053445061746820665F6D6F750E
:104400006E74206973206661696C206572726F72C8
:1044100020636F6465206973203A25640000000002
:1044200053445061746820665F6D6F756E742069C7
:10443000732073756363657373000000313A777797
:104440002E5458540000000054130020534450616F
:10445000746820665F6F70656E2072657320697383
:10446000203A2564000000005344506174682066BF
:104470005F6F70656E206973206661696C2323230A
:10448000726573206973203A2564000053445061BB
:10449000746820665F6F70656E2069732073756342
:1044A00063657373000000005344506174682066B4
:1044B0005F7772697465206973206661696C232374
:1044C00023726573206973203A2564005344506158
:1044D000746820665F7772697465206973207375EC
:1044E0006363657373232323726573206973203AB2
:1044F0002564232323627974657377726974656E0A
:104500002069733A20256400665F726561642069E2
:10451000732072746578742069733A2025730000E3
:10452000665F72656164206973206661696C2065ED
:1045300072726F7220636F64652069733A2025641C
:1045400000000000665F636C6F736520697320660E
:1045500061696C206572726F7220636F6465206997
:10456000733A20256400000023232323235344505F
:1045700061746820665F6D6F756E74206973207357
:1045800075636365737300002DE9F04106461848B2
:1045900015460078062800D049024FF40077012D17
:1045A0004FF0010219D0122000F0A2F8394630462F
:1045B00000F020F86D1E044606F5007615F0FF05A4
:1045C00001D0002CF2D0012200210C2000F090F844
:1045D000FFF7C0FC2046BDE8F081112000F088F80C
:1045E0000400F5D13946304600F004F80446EFE700
:1045F0000600002070B504460D46FE20FFF7CDFCF6
:1046000030B1012070BD00BF00F01CF904F8010BAF
:104610006D1EADB24FF0FF00F6D200F013F9FF208F
:1046200000F010F9002070BD124810B5C16C86B0C2
:1046300041F00401C164C06C0F4C00F0040005900F
:10464000082000900120019002900220039069460A
:104650002046FCF79DFA012208212046FCF7A7FB23
:1046600000F0C6F8012208212046FCF7A0FB06B0A6
:1046700010BD0000001002400008004800F0E2B841
:1046800010B5002208210548FCF791FB00F05FF807
:10469000002802D0FFF75EFC012010BD0008004892
:1046A00070B50C46054600F052F808B1012070BD07
:1046B000204600F0C7F8FD2C18D000244FF40076F7
:1046C000285D00F0BFF8641CA4B2B442F8D3FF2008
:1046D00000F0B8F8FF2000F0B5F8FF20FFF7CEFF9C
:1046E00000F01F00052801D0022070BD002070BD21
:1046F00070B515460C460646FFF72CFCFFF7C0FFC9
:1047000008B1FF2070BD46F0400000F09BF8200E7D
:1047100000F098F8C4F3074000F094F8C4F30720C1
:1047200000F090F8E0B200F08DF8284600F08AF82A
:104730000C2E02D1FF2000F085F81F24FF20FFF788
:104740009DFF0106DED5641EE4B2F7D270BD70B5E0
:1047500000246FF07F45FF20FFF790FFFF2804D073
:10476000641CAC42F7D3012070BD002070BD000076
:1047700070B506461D4815460C460078062800D040
:104780004C02012D13D0012809D00122002137202D
:10479000FFF7AEFF012229461720FFF7A9FF0122EC
:1047A00021461920FFF7A4FF04000AD01AE00122D5
:1047B00021461820FFF79CFF040013D1FE2130464C
:1047C0000DE0FC213046FFF76BFF6D1E06F500760D
:1047D00015F0FF0501D00028F3D0FD210020FFF7E0
:1047E0005FFF0446FFF7B6FB204670BD06000020C1
:1047F00010B5134C11484FF4E06120604FF4827003
:1048000060600020C4E9020102212161012161618F
:104810004902A1613821C4E907106062A062072043
:10482000E0622046FDF722FD2068016841F040016A
:104830000160BDE81040FF2000F02EB800300140BC
:10484000600C002001B582B04FF47A700090012313
:1048500001AA02A90248FDF790FE9DF804000EBDD2
:10486000600C00200B4910B50A68136823F0400360
:1048700013600A6813684FF6C774234013600A6810
:104880001368034313600868016841F04001016048
:1048900010BD0000600C002001B54FF47A730122B6
:1048A00069460248FDF7A2FD08BD0000600C00202B
:1048B00010B5114C0F484FF4E06120604FF4827046
:1048C00060600020C4E902010221216101216161CF
:1048D0004902C4E9061020626062A0620720E0621B
:1048E0002046FDF7C3FC2068016841F040010160EB
:1048F00010BD0000003C0040FC0B00200A460146B1
:104900004FF47A730148FDF771BD0000FC0B0020E5
:10491000F8B515460E460B460092044600224FF4A9
:10492000C05100F019F888B9334600228021204692
:10493000009500F085F848B9334600224FF4C06175
:104940002046009500F008F8002804D0206E40F0C2
:10495000200020660320F8BD2DE9FE4F4FF0000A2D
:10496000984617460E4604460C9D8DF804A0FCF7A9
:1049700023FA411BA8EB0105FCF71EFA81462068CB
:104980004FF4C06B0C3002902A480068C0EBC000A6
:1049900000EB8000000D6843009043E05E4506D1C7
:1049A0002FB9029800788DF804009DF80400B8F142
:1049B000FF3F37D0FCF700FAA0EB0900A84203D272
:1049C00015B1009858B32BE02068416821F0E00150
:1049D00041606068B0F5827F0BD1A068B0F5004FF0
:1049E00002D0B0F5806F04D12068016821F0400149
:1049F0000160A06AB0F5005F09D12068016821F468
:104A0000005101602068016841F4005101600120FB
:104A100084F85D0084F85CA0032000F00DB8002548
:104A2000401E0090206880683040B842B6D1002017
:104A3000F3E70000140000201EBCBDE8E08F00007A
:104A40002DE9F8431E46914688460446089DFCF72A
:104A5000B3F9401B351AFCF7AFF907462548006843
:104A6000C0F3CB30684338E0701C37D0FCF7A4F9B2
:104A7000C01BA84203D215B1009860B32CE0206897
:104A8000416821F0E00141606068B0F5827F0BD1A0
:104A9000A068B0F5004F02D0B0F5806F04D1206857
:104AA000016821F040010160A06AB0F5005F09D102
:104AB0002068016821F4005101602068016841F418
:104AC00000510160012084F85D00002084F85C0042
:104AD0000320BDE8F8830025401E0090206881680F
:104AE00038EA010004D000214945BDD10020F0E79B
:104AF0000121F9E71400002070470000F0B50546D9
:104B000000242A7820462346302A2ED16A78782A33
:104B100001D0582A29D102241CE000BFA2F141068D
:104B2000052E07D9A2F16107052F03D91136092EE9
:104B300004D913E0A2F13007092F01D8303A04E07C
:104B4000052E01D8373A00E0573A641C02EB0313F4
:104B50000B2C04D22A5D002AE0D103E000202A5D5C
:104B6000002A01D101200B60F0BD2A5D62B16B2AE1
:104B700001D04B2A02D10CB19B0205E06D2A01D075
:104B80004D2A04D11CB11B0501200B600AE0A2F1E3
:104B90003006092E0CD803EB83036FF02F0606EBCB
:104BA00043031344641C0B2CDED20128DDD1F0BD7D
:104BB0000020F0BDFCF738BB10B596B04421684624
:104BC000FBF74FFB142111A8FBF74BFB4FF40070D0
:104BD000FCF7CCFB08B172B6FEE710200090012074
:104BE000002460210690CDE907410221CDE90A1099
:104BF0000C9028200D900720CDE90E0168461091F9
:104C0000FDF7A0F808B172B6FEE70F20119003205F
:104C1000CDE912041494042111A81594FCF78CFF1B
:104C2000002801D072B6FEE716B010BD0248016838
:104C300041F470010160704788ED00E090F82410A5
:104C4000C90706D001684A68836A22F400321A4311
:104C50004A6090F82410890706D501684A68C36A3B
:104C600022F480321A434A6090F82410490706D58E
:104C700001684A68036B22F480221A434A6090F864
:104C80002410090706D501684A68436B22F40042E4
:104C90001A434A6090F82410C90606D501688A684C
:104CA000836B22F480521A438A6090F8241089069C
:104CB00006D501688A68C36B22F400521A438A60E1
:104CC00090F82410490611D501684A68036C22F453
:104CD00080121A434A60016CB1F5801F06D1016849
:104CE0004A68436C22F4C0021A434A6090F82410C8
:104CF000090606D501684A68806C22F40022024346
:104D00004A607047F8B500260446C0F88060FCF79A
:104D100053F80546206800686FF07E47000708D505
:104D20002B4600224FF400112046009700F066FA4F
:104D300060B92068006840070AD52B4600224FF46E
:104D400080012046009700F059FA08B10320F8BD11
:104D50002020A067E067266684F874600020F8BD14
:104D600010B5806A0021A0F85A10A0F85210FDF783
:104D70005AFD10BD016851E8002F22F4907241E8FD
:104D80000023002BF6D10168083151E8002F22F0F2
:104D9000010241E80023002BF5D1016E012908D161
:104DA000026852E8001F21F0100142E80013002BB6
:104DB000F6D12021C167002101664166704710B518
:104DC000B0F85C20C36F0168222B04D0088B40F040
:104DD0000800088310BD898C436D11401980416D16
:104DE000891C4165B0F85A10491EA0F85A10B0F855
:104DF0005A100029EED1026852E8001F21F4907188
:104E000042E80013002BF6D10168083151E8002F69
:104E100022F0010241E80023002BF5D12021C167D7
:104E200000214166026E012A02D0FDF7EDFE10BDA1
:104E30000166026852E8001F21F0100142E80013E9
:104E4000002BF6D10168CA69D243D20601D41022E0
:104E50000A62B0F85810FDF7E4FC10BD10B5B0F8C8
:104E60005C20C36F0168222B04D0088B40F008003F
:104E7000088310BD898C1140426D1170416D491C31
:104E80004165B0F85A10491EA0F85A10B0F85A10EF
:104E90000029EED1026852E8001F21F4907142E827
:104EA0000013002BF6D10168083151E8002F22F0E1
:104EB000010241E80023002BF5D12021C167002128
:104EC0004166026E012A02D0FDF79EFE10BD01660A
:104ED000026852E8001F21F0100142E80013002B85
:104EE000F6D10168CA69D243D20601D410220A62FF
:104EF000B0F85810FDF795FC10BD00002DE9F04109
:104F00000446016880682269E369104362690025EC
:104F10001A431043814F0A68814B1A4002430A60CA
:104F200020684168E26821F44051114341602168E2
:104F3000A069B94201D0226A10438A6822F4306223
:104F400002438A607749226877488A420DD1D0F8B7
:104F5000880010F0030006D0012866D0022854D043
:104F6000032851D163E001204FE070498A420BD100
:104F7000D0F8880010F00C0047D0042845D008284D
:104F800051D00C2840D152E069498A420BD1D0F867
:104F9000880010F0300038D0102846D0202842D0A9
:104FA000302831D143E063498A420BD1D0F88800E0
:104FB00010F0C00029D0402837D0802833D0C02836
:104FC00022D134E05C498A420ED1D0F8880010F436
:104FD00040701AD0B0F5807F27D0B0F5007F22D086
:104FE000B0F5407F10D122E0BA420DD1D0F8880050
:104FF00010F4406009D0B0F5806F16D0B0F5006FA6
:1050000011D0B0F5406F12D010204C4900264FF45B
:105010000043BA422ED160B102280DD004280DD031
:1050200008286FD10EE00220EFE70420EDE708200A
:10503000EBE7FCF711FE03E00B4603E0FCF730FE64
:10504000030060D0626802EB420098425AD8B3EB8A
:10505000023F57D8190E1B0250081818714100233F
:10506000FBF7B2F8364AA0F5407191424AD8216860
:10507000C86048E0E2694FF6EF779A4227D10928E5
:1050800040D2DFE800F005080D3F213F3F3F0E0012
:10509000FCF7E2FD01E0FCF7F1FD030001D132E095
:1050A0000B466068590001EB5001B1FBF0F0A0F134
:1050B0001001B94226D84FF6F0710140C0F342000A
:1050C00001432068C1601EE0FCF7EAFDE5E709281E
:1050D00018D2DFE800F005080D171D1717170E008E
:1050E000FCF7BAFD01E0FCF7C9FD030001D10AE0BD
:1050F0000B46606803EB5001B1FBF0F0A0F110012A
:10510000B94208D9012566662846A666BDE8F08141
:10511000FCF7C6FDE9E780B2A9E700000080004087
:10512000F369FFEF003801400010024000440040E6
:1051300000480040004C0040005000400024F400B3
:10514000FFFC0F0030B54165A0F85820A0F85A20A8
:105150000022426681684FF48055FF23A94204D1A2
:10516000016971BB40F2FF1131E07F2439B3B1F125
:10517000805F29D0A0F85C20C0F880202221C16780
:105180000168083151E8003F43F0010341E8003471
:10519000002CF5D18168A94201D10169E9B1154915
:1051A000416680F874200169C9B1026852E8001FA5
:1051B00041F4907142E80013002BF6D118E0016928
:1051C00041B9A0F85C30D7E7016919B13F21A0F8D7
:1051D0005C10D1E7A0F85C40CEE70749E0E7026841
:1051E00052E8001F41F0200142E80013002BF6D1E5
:1051F000002030BD5D4E0008BF4D00082DE9F0478E
:105200009A4617460E4604464FF000094FF0200814
:10521000089D4AE0681C48D0FBF7CEFDA0EB0A00D1
:10522000A8422AD84DB32068016849073DD5C06916
:10523000C043000539D421684FF40060086220683B
:1052400050E8001F21F4D07140E80012002AF6D186
:105250002068083050E8001F21F0010140E80012EA
:10526000002AF5D1C4F87880C4F87C80C4F8808026
:1052700084F874900320BDE8F087216851E8000F9E
:1052800020F4D07041E80002002AF6D120680830EE
:1052900050E8001F21F0010140E80012002AF5D17A
:1052A000C4F87880C4F87C80E2E72068C06936EAF8
:1052B000000004D00020B842ACD00020DBE7012081
:1052C000F9E700000148FDF7AFBA0000B40600207E
:1052D00070B504460D46204600F0FBF8A0F57F426D
:1052E000FF3A07D000F00F0204EB820245F40041C0
:1052F000C2F88413C0B270BD30B585B01D4601241C
:105300004FF0000C029201910223CDF80CC00094E2
:105310002246294600F052FC05B0002030BD30B5D1
:1053200085B08C4608991D4690F81D43002C00D08E
:1053300000210124029203910223CDF804C00094BD
:105340000022294600F03AFC05B0002030BD10B51F
:1053500000F057FB002010BD8278012A07D10222FD
:10536000027401224274002242828182C28200229F
:10537000114600F013B830B585B01D464FF0000C53
:105380000124029201916346CDF80CC0009422469C
:10539000294600F013FC05B0002030BD70B504466E
:1053A0000120A3780125012B0BD0022B08D1204628
:1053B00000F0FDF858B1032809D0022800D1A570EB
:1053C00070BDA160A28125760221A17070BDA5707B
:1053D0000021217670BD30B585B08C4608991D46F8
:1053E00090F81D43002C00D00021012400230292DC
:1053F0000391CDF804C000941A46294600F0DEFB64
:1054000005B0002030BD10B584B0144600234FF025
:10541000080C019100931A46CDF808C00393214669
:1054200000F0CCFB04B0002010BDFBF79FBB30B4F4
:10543000844600200CF54E7400EB800C0CEBC00C85
:1054400004EB4C0C0CF10A0C9CF805508D4201D079
:10545000FF290BD19CF80650954201D0FF2A05D1B7
:105460009CF807C09C4506D0FF2B04D0401CC0B25E
:105470000228E1D3FF2030BC70470B2907D200EB94
:105480008100B0F88413C1F30E01C0F8841300202A
:10549000704730B48C4602998478012C10D14CF0BE
:1054A000800C80F810C04FF0060C80F811C04282CA
:1054B00002F47F42B2F5407F07D000228282C1828F
:1054C0000A4630BC1946FFF769BF40F209428282A2
:1054D000F5E70146002001EB8002B2F8842312F4C4
:1054E000004F05D0401CC0B20B28F4D34FF6FF701C
:1054F00070470A8803781A440A8001780844704784
:10550000F8B504460E4604F11C052B464FF4007214
:10551000002120460096FFF7BCFF071E05D132464A
:10552000294604F54E7001F087FA3846F8BDF8B503
:1055300004460D4604F58E734FF480720021204618
:105540000095FFF7A6FF061E06D12A4604F58E71C8
:1055500004F2263001F0C9FA3046F8BDF8B5044629
:1055600016461D4641F4407204F58E730021204614
:105570000095FFF78EFF071E05D12A46314604F538
:105580008E7001F001FB3846F8BD0146002000296D
:1055900006D0012905D0022905D0032905D0022013
:1055A000704702207047012070470220704738B5CD
:1055B00004460125207E0C2880F0DA80DFE800F028
:1055C000D80610333F515F7A869AA8BD627904F1FC
:1055D00010012046FFF717FF0220207600F0C8B820
:1055E0006179204600F06BFA012804D0042817D016
:1055F000022815D0BCE0207C00F08000E18A39B19F
:10560000802802D005202076B2E003202076AFE08B
:10561000802802D007202076AAE009202076A7E083
:105620000B202076A4E0D4F8C403E0812379A2897A
:105630002046A168FFF79FFE0420207698E021799C
:10564000204600F03CFA012801D1092121760528E5
:1056500002D0042802D08BE0032589E00B202076BD
:1056600086E0012000906379A2892046A168FFF7B7
:10567000B2FED4F8C403E0810620207678E0617998
:10568000204600F01CFA012806D0052807D0022881
:1056900009D004280AD06BE00720207668E00C20AF
:1056A0002076032564E00520207661E00B2020763B
:1056B00002255DE00022237911462046FFF75BFEBC
:1056C000D4F8C403E0810820207651E021792046F7
:1056D00000F0F5F9012804D0042806D0052807D0E9
:1056E00046E00D202076002542E00B2020763FE0AA
:1056F00003253DE0012000900022637911462046F9
:10570000FFF769FED4F8C403E0810A2020762FE079
:105710006179204600F0D3F9012804D0022806D090
:10572000042807D024E000250D20207620E0092061
:1057300020761DE00B2020761AE0607E401CC0B26F
:105740006076022803D801202076A07010E0D4F8FB
:10575000D4230621204690470025657661792046AE
:10576000FFF78BFE21792046FFF787FE2570022583
:10577000284638BD2DE9F04184B004460125607803
:1057800000260D27A846082880F00C81DFE800F0ED
:105790000442628EAECFE3F808212046FFF7C7FE31
:1057A00018B1032821D000F0FDB894F82D03A071A2
:1057B00084F8018094F81D1302900196009194F8EA
:1057C0001C3321798022204601F027F9A07994F832
:1057D0001D1302900196009194F81C336179002208
:1057E000204601F01AF900F0DDB894F81E03401CC1
:1057F000C0B284F81E03032802D9277000F0D2B883
:1058000061792046FFF739FE21792046FFF735FE02
:105810002670C7E012212046FFF789FE10B1032849
:1058200003D0BFE002206070BCE094F81E03401C6F
:10583000C0B284F81E03032801D92770B2E0617951
:105840002046FFF71AFE21792046FFF716FE667004
:105850002670A7E00121204601F004FB10B10328C7
:1058600021D09FE00220FFF7E0FD434684F81C832F
:1058700003206070A07994F81D13029001960091A6
:1058800021798022204601F0C8F8A07994F81D13F0
:1058900002900196009194F81C3361790022204611
:1058A00001F0BBF87EE0277066707BE0092120469E
:1058B000FFF726FE10B1032803D073E004206070C8
:1058C00070E094F81E03401CC0B284F81E03032845
:1058D00001D9277066E061792046FFF7CEFD217976
:1058E0002046FFF7CAFD667026705BE0B4F83A13F5
:1058F0002046FFF705FE10B1032803D052E0052033
:1059000060704FE094F81E03401CC0B284F81E0380
:10591000032801D9277045E061792046FFF7ADFDE6
:1059200021792046FFF7A9FD667026703AE094F8C9
:105930003413062669B1FF2304F58E722046FFF763
:105940000DFE10B1032802D02CE066702AE06670CC
:1059500028E0667026E094F83513072671B1FF231E
:1059600004F58E722046FFF7F9FD18B1032803D025
:1059700018E005E0667015E0667013E0667011E0EF
:1059800094F8361369B1FF2304F58E722046FFF7B1
:10599000E5FD10B1032802D004E0002502E0002557
:1059A00000E0002504B02846BDE8F08101780B290D
:1059B00005D1D0F87C13002901D0896908477047C8
:1059C00070B504460E46002C19D084F8CC2300256F
:1059D000C4F87C53C4F880532046FBF72CF884F8B5
:1059E000235384F8205384F8215384F822530EB1B2
:1059F000C4F8D463204600F06DF8002070BD02208A
:105A000070BD10B5D0F8D003FBF7FBF9BDE810402E
:105A1000FFF7BBBD012180F82013002180F821137E
:105A200080F822130020704710B50446012084F846
:105A30002103002084F8200384F82303204600F08B
:105A4000B4F821792046FFF718FD61792046FFF769
:105A500014FD002010BD10B590F8CC03012802D130
:105A60000846FDF70BFFC820FBF780F8002010BDAB
:105A7000D0F8D003FBF7BDB910B50124D0F8D0039E
:105A8000FBF7ABF920B1012805D0022803D101E0D2
:105A9000002400E00224204610BDD0F8D00301EB22
:105AA000410202EBC10100EB810090F83B1000299C
:105AB00002D090F85400704790F855007047D0F825
:105AC000D003FBF78DB9D0F8C413491CC0F8C41338
:105AD000FFF76CBF10B5044694F8CC0301281CD125
